{
  "_format": "hh-sol-artifact-1",
  "contractName": "BenderHelper",
  "sourceName": "contracts/BenderHelper.sol",
  "abi": [
    {
      "anonymous": false,
      "inputs": [
        {
          "indexed": true,
          "internalType": "address",
          "name": "previousOwner",
          "type": "address"
        },
        {
          "indexed": true,
          "internalType": "address",
          "name": "newOwner",
          "type": "address"
        }
      ],
      "name": "OwnershipTransferred",
      "type": "event"
    },
    {
      "inputs": [
        {
          "internalType": "uint256",
          "name": "",
          "type": "uint256"
        }
      ],
      "name": "benderToOwner",
      "outputs": [
        {
          "internalType": "address",
          "name": "",
          "type": "address"
        }
      ],
      "stateMutability": "view",
      "type": "function"
    },
    {
      "inputs": [
        {
          "internalType": "uint256",
          "name": "",
          "type": "uint256"
        }
      ],
      "name": "benders",
      "outputs": [
        {
          "internalType": "uint256",
          "name": "tokenId",
          "type": "uint256"
        },
        {
          "internalType": "uint256",
          "name": "health",
          "type": "uint256"
        },
        {
          "internalType": "uint256",
          "name": "HP",
          "type": "uint256"
        },
        {
          "internalType": "uint64",
          "name": "strength",
          "type": "uint64"
        },
        {
          "internalType": "uint64",
          "name": "speed",
          "type": "uint64"
        },
        {
          "internalType": "uint64",
          "name": "agility",
          "type": "uint64"
        },
        {
          "internalType": "uint32",
          "name": "chi",
          "type": "uint32"
        },
        {
          "internalType": "uint32",
          "name": "readyAt",
          "type": "uint32"
        },
        {
          "components": [
            {
              "internalType": "uint256",
              "name": "wins",
              "type": "uint256"
            },
            {
              "internalType": "uint256",
              "name": "losses",
              "type": "uint256"
            }
          ],
          "internalType": "struct BenderBase.Record",
          "name": "record",
          "type": "tuple"
        },
        {
          "internalType": "uint16",
          "name": "points",
          "type": "uint16"
        },
        {
          "internalType": "string",
          "name": "name",
          "type": "string"
        },
        {
          "internalType": "string",
          "name": "element",
          "type": "string"
        }
      ],
      "stateMutability": "view",
      "type": "function"
    },
    {
      "inputs": [
        {
          "internalType": "uint32",
          "name": "_minDamage",
          "type": "uint32"
        },
        {
          "internalType": "uint32",
          "name": "_maxDamage",
          "type": "uint32"
        },
        {
          "internalType": "uint32",
          "name": "_precision",
          "type": "uint32"
        },
        {
          "internalType": "uint32",
          "name": "_cost",
          "type": "uint32"
        },
        {
          "internalType": "string",
          "name": "_name",
          "type": "string"
        },
        {
          "internalType": "string",
          "name": "_element",
          "type": "string"
        },
        {
          "internalType": "uint256",
          "name": "_price",
          "type": "uint256"
        }
      ],
      "name": "createAttack",
      "outputs": [],
      "stateMutability": "nonpayable",
      "type": "function"
    },
    {
      "inputs": [],
      "name": "getAttacks",
      "outputs": [
        {
          "components": [
            {
              "internalType": "uint32",
              "name": "minDamage",
              "type": "uint32"
            },
            {
              "internalType": "uint32",
              "name": "maxDamage",
              "type": "uint32"
            },
            {
              "internalType": "uint32",
              "name": "precision",
              "type": "uint32"
            },
            {
              "internalType": "uint32",
              "name": "cost",
              "type": "uint32"
            },
            {
              "internalType": "string",
              "name": "name",
              "type": "string"
            },
            {
              "internalType": "string",
              "name": "element",
              "type": "string"
            },
            {
              "internalType": "uint256",
              "name": "price",
              "type": "uint256"
            }
          ],
          "internalType": "struct BenderBending.Attack[]",
          "name": "",
          "type": "tuple[]"
        }
      ],
      "stateMutability": "view",
      "type": "function"
    },
    {
      "inputs": [
        {
          "internalType": "uint256",
          "name": "tokenId",
          "type": "uint256"
        }
      ],
      "name": "getBender",
      "outputs": [
        {
          "components": [
            {
              "internalType": "uint256",
              "name": "tokenId",
              "type": "uint256"
            },
            {
              "internalType": "uint256",
              "name": "health",
              "type": "uint256"
            },
            {
              "internalType": "uint256",
              "name": "HP",
              "type": "uint256"
            },
            {
              "internalType": "uint64",
              "name": "strength",
              "type": "uint64"
            },
            {
              "internalType": "uint64",
              "name": "speed",
              "type": "uint64"
            },
            {
              "internalType": "uint64",
              "name": "agility",
              "type": "uint64"
            },
            {
              "internalType": "uint32",
              "name": "chi",
              "type": "uint32"
            },
            {
              "internalType": "uint32",
              "name": "readyAt",
              "type": "uint32"
            },
            {
              "components": [
                {
                  "internalType": "uint256",
                  "name": "wins",
                  "type": "uint256"
                },
                {
                  "internalType": "uint256",
                  "name": "losses",
                  "type": "uint256"
                }
              ],
              "internalType": "struct BenderBase.Record",
              "name": "record",
              "type": "tuple"
            },
            {
              "internalType": "uint16",
              "name": "points",
              "type": "uint16"
            },
            {
              "internalType": "string",
              "name": "name",
              "type": "string"
            },
            {
              "internalType": "string",
              "name": "element",
              "type": "string"
            }
          ],
          "internalType": "struct BenderBase.Bender",
          "name": "",
          "type": "tuple"
        }
      ],
      "stateMutability": "view",
      "type": "function"
    },
    {
      "inputs": [
        {
          "internalType": "uint256",
          "name": "_benderId",
          "type": "uint256"
        }
      ],
      "name": "getBenderAttacks",
      "outputs": [
        {
          "components": [
            {
              "internalType": "uint32",
              "name": "minDamage",
              "type": "uint32"
            },
            {
              "internalType": "uint32",
              "name": "maxDamage",
              "type": "uint32"
            },
            {
              "internalType": "uint32",
              "name": "precision",
              "type": "uint32"
            },
            {
              "internalType": "uint32",
              "name": "cost",
              "type": "uint32"
            },
            {
              "internalType": "string",
              "name": "name",
              "type": "string"
            },
            {
              "internalType": "string",
              "name": "element",
              "type": "string"
            },
            {
              "internalType": "uint256",
              "name": "price",
              "type": "uint256"
            }
          ],
          "internalType": "struct BenderBending.Attack[]",
          "name": "",
          "type": "tuple[]"
        }
      ],
      "stateMutability": "view",
      "type": "function"
    },
    {
      "inputs": [],
      "name": "getBenders",
      "outputs": [
        {
          "components": [
            {
              "internalType": "uint256",
              "name": "tokenId",
              "type": "uint256"
            },
            {
              "internalType": "uint256",
              "name": "health",
              "type": "uint256"
            },
            {
              "internalType": "uint256",
              "name": "HP",
              "type": "uint256"
            },
            {
              "internalType": "uint64",
              "name": "strength",
              "type": "uint64"
            },
            {
              "internalType": "uint64",
              "name": "speed",
              "type": "uint64"
            },
            {
              "internalType": "uint64",
              "name": "agility",
              "type": "uint64"
            },
            {
              "internalType": "uint32",
              "name": "chi",
              "type": "uint32"
            },
            {
              "internalType": "uint32",
              "name": "readyAt",
              "type": "uint32"
            },
            {
              "components": [
                {
                  "internalType": "uint256",
                  "name": "wins",
                  "type": "uint256"
                },
                {
                  "internalType": "uint256",
                  "name": "losses",
                  "type": "uint256"
                }
              ],
              "internalType": "struct BenderBase.Record",
              "name": "record",
              "type": "tuple"
            },
            {
              "internalType": "uint16",
              "name": "points",
              "type": "uint16"
            },
            {
              "internalType": "string",
              "name": "name",
              "type": "string"
            },
            {
              "internalType": "string",
              "name": "element",
              "type": "string"
            }
          ],
          "internalType": "struct BenderBase.Bender[]",
          "name": "",
          "type": "tuple[]"
        }
      ],
      "stateMutability": "view",
      "type": "function"
    },
    {
      "inputs": [
        {
          "internalType": "address",
          "name": "_owner",
          "type": "address"
        }
      ],
      "name": "getBendersByOwner",
      "outputs": [
        {
          "components": [
            {
              "internalType": "uint256",
              "name": "tokenId",
              "type": "uint256"
            },
            {
              "internalType": "uint256",
              "name": "health",
              "type": "uint256"
            },
            {
              "internalType": "uint256",
              "name": "HP",
              "type": "uint256"
            },
            {
              "internalType": "uint64",
              "name": "strength",
              "type": "uint64"
            },
            {
              "internalType": "uint64",
              "name": "speed",
              "type": "uint64"
            },
            {
              "internalType": "uint64",
              "name": "agility",
              "type": "uint64"
            },
            {
              "internalType": "uint32",
              "name": "chi",
              "type": "uint32"
            },
            {
              "internalType": "uint32",
              "name": "readyAt",
              "type": "uint32"
            },
            {
              "components": [
                {
                  "internalType": "uint256",
                  "name": "wins",
                  "type": "uint256"
                },
                {
                  "internalType": "uint256",
                  "name": "losses",
                  "type": "uint256"
                }
              ],
              "internalType": "struct BenderBase.Record",
              "name": "record",
              "type": "tuple"
            },
            {
              "internalType": "uint16",
              "name": "points",
              "type": "uint16"
            },
            {
              "internalType": "string",
              "name": "name",
              "type": "string"
            },
            {
              "internalType": "string",
              "name": "element",
              "type": "string"
            }
          ],
          "internalType": "struct BenderBase.Bender[]",
          "name": "",
          "type": "tuple[]"
        }
      ],
      "stateMutability": "view",
      "type": "function"
    },
    {
      "inputs": [
        {
          "internalType": "string",
          "name": "_element",
          "type": "string"
        },
        {
          "components": [
            {
              "internalType": "uint64",
              "name": "strength",
              "type": "uint64"
            },
            {
              "internalType": "uint64",
              "name": "speed",
              "type": "uint64"
            },
            {
              "internalType": "uint64",
              "name": "agility",
              "type": "uint64"
            },
            {
              "internalType": "uint32",
              "name": "chi",
              "type": "uint32"
            }
          ],
          "internalType": "struct BenderBase.BendingAttributes",
          "name": "_attributes",
          "type": "tuple"
        }
      ],
      "name": "getBending",
      "outputs": [
        {
          "components": [
            {
              "internalType": "uint64",
              "name": "strength",
              "type": "uint64"
            },
            {
              "internalType": "uint64",
              "name": "speed",
              "type": "uint64"
            },
            {
              "internalType": "uint64",
              "name": "agility",
              "type": "uint64"
            },
            {
              "internalType": "uint32",
              "name": "chi",
              "type": "uint32"
            }
          ],
          "internalType": "struct BenderBase.BendingAttributes",
          "name": "",
          "type": "tuple"
        }
      ],
      "stateMutability": "view",
      "type": "function"
    },
    {
      "inputs": [],
      "name": "getMyBenders",
      "outputs": [
        {
          "components": [
            {
              "internalType": "uint256",
              "name": "tokenId",
              "type": "uint256"
            },
            {
              "internalType": "uint256",
              "name": "health",
              "type": "uint256"
            },
            {
              "internalType": "uint256",
              "name": "HP",
              "type": "uint256"
            },
            {
              "internalType": "uint64",
              "name": "strength",
              "type": "uint64"
            },
            {
              "internalType": "uint64",
              "name": "speed",
              "type": "uint64"
            },
            {
              "internalType": "uint64",
              "name": "agility",
              "type": "uint64"
            },
            {
              "internalType": "uint32",
              "name": "chi",
              "type": "uint32"
            },
            {
              "internalType": "uint32",
              "name": "readyAt",
              "type": "uint32"
            },
            {
              "components": [
                {
                  "internalType": "uint256",
                  "name": "wins",
                  "type": "uint256"
                },
                {
                  "internalType": "uint256",
                  "name": "losses",
                  "type": "uint256"
                }
              ],
              "internalType": "struct BenderBase.Record",
              "name": "record",
              "type": "tuple"
            },
            {
              "internalType": "uint16",
              "name": "points",
              "type": "uint16"
            },
            {
              "internalType": "string",
              "name": "name",
              "type": "string"
            },
            {
              "internalType": "string",
              "name": "element",
              "type": "string"
            }
          ],
          "internalType": "struct BenderBase.Bender[]",
          "name": "",
          "type": "tuple[]"
        }
      ],
      "stateMutability": "view",
      "type": "function"
    },
    {
      "inputs": [],
      "name": "owner",
      "outputs": [
        {
          "internalType": "address",
          "name": "",
          "type": "address"
        }
      ],
      "stateMutability": "view",
      "type": "function"
    },
    {
      "inputs": [],
      "name": "renounceOwnership",
      "outputs": [],
      "stateMutability": "nonpayable",
      "type": "function"
    },
    {
      "inputs": [
        {
          "internalType": "address",
          "name": "newOwner",
          "type": "address"
        }
      ],
      "name": "transferOwnership",
      "outputs": [],
      "stateMutability": "nonpayable",
      "type": "function"
    }
  ],
  "bytecode": "0x6080604052603c6001556040518060800160405280600367ffffffffffffffff168152602001600a67ffffffffffffffff168152602001600a67ffffffffffffffff168152602001600f63ffffffff16815250600560008201518160000160006101000a81548167ffffffffffffffff021916908367ffffffffffffffff16021790555060208201518160000160086101000a81548167ffffffffffffffff021916908367ffffffffffffffff16021790555060408201518160000160106101000a81548167ffffffffffffffff021916908367ffffffffffffffff16021790555060608201518160000160186101000a81548163ffffffff021916908363ffffffff16021790555050506040518060800160405280600567ffffffffffffffff168152602001600567ffffffffffffffff168152602001600567ffffffffffffffff168152602001601463ffffffff16815250600660008201518160000160006101000a81548167ffffffffffffffff021916908367ffffffffffffffff16021790555060208201518160000160086101000a81548167ffffffffffffffff021916908367ffffffffffffffff16021790555060408201518160000160106101000a81548167ffffffffffffffff021916908367ffffffffffffffff16021790555060608201518160000160186101000a81548163ffffffff021916908363ffffffff16021790555050506040518060800160405280600a67ffffffffffffffff168152602001600767ffffffffffffffff168152602001600567ffffffffffffffff168152602001600a63ffffffff16815250600760008201518160000160006101000a81548167ffffffffffffffff021916908367ffffffffffffffff16021790555060208201518160000160086101000a81548167ffffffffffffffff021916908367ffffffffffffffff16021790555060408201518160000160106101000a81548167ffffffffffffffff021916908367ffffffffffffffff16021790555060608201518160000160186101000a81548163ffffffff021916908363ffffffff16021790555050506040518060800160405280600567ffffffffffffffff168152602001600767ffffffffffffffff168152602001600767ffffffffffffffff168152602001600f63ffffffff16815250600860008201518160000160006101000a81548167ffffffffffffffff021916908367ffffffffffffffff16021790555060208201518160000160086101000a81548167ffffffffffffffff021916908367ffffffffffffffff16021790555060408201518160000160106101000a81548167ffffffffffffffff021916908367ffffffffffffffff16021790555060608201518160000160186101000a81548163ffffffff021916908363ffffffff16021790555050503480156200041a57600080fd5b506200043b6200042f6200044160201b60201c565b6200044960201b60201c565b6200050d565b600033905090565b60008060009054906101000a900473ffffffffffffffffffffffffffffffffffffffff169050816000806101000a81548173ffffffffffffffffffffffffffffffffffffffff021916908373ffffffffffffffffffffffffffffffffffffffff1602179055508173ffffffffffffffffffffffffffffffffffffffff168173ffffffffffffffffffffffffffffffffffffffff167f8be0079c531659141344cd1fd0a4f28419497f9722a3daafe3b4186f6b6457e060405160405180910390a35050565b612edf806200051d6000396000f3fe608060405234801561001057600080fd5b50600436106100cf5760003560e01c8063715018a61161008c5780638da5cb5b116100665780638da5cb5b14610226578063d2c412ee14610244578063f2fde38b1461027f578063ffc0a23f1461029b576100cf565b8063715018a6146101d05780637670bf86146101da578063788a25f8146101f6576100cf565b8063014fed0c146100d457806311132ace146100f25780632a6225e414610122578063410746991461015257806367c341bf146101825780636fc082cc146101b2575b600080fd5b6100dc6102b9565b6040516100e991906128da565b60405180910390f35b61010c60048036038101906101079190612146565b6104de565b60405161011991906128fc565b60405180910390f35b61013c600480360381019061013791906121c3565b6104f0565b60405161014991906128bf565b60405180910390f35b61016c600480360381019061016791906121c3565b610523565b60405161017991906128da565b60405180910390f35b61019c600480360381019061019791906121c3565b61086f565b6040516101a9919061295e565b60405180910390f35b6101ba610b3e565b6040516101c791906128fc565b60405180910390f35b6101d8610e0a565b005b6101f460048036038101906101ef91906121ec565b610e92565b005b610210600480360381019061020b919061216f565b61106f565b60405161021d9190612980565b60405180910390f35b61022e611557565b60405161023b91906128bf565b60405180910390f35b61025e600480360381019061025991906121c3565b611580565b6040516102769c9b9a9998979695949392919061299b565b60405180910390f35b61029960048036038101906102949190612146565b611788565b005b6102a3611880565b6040516102b091906128fc565b60405180910390f35b60606009805480602002602001604051908101604052809291908181526020016000905b828210156104d557838290600052602060002090600402016040518060e00160405290816000820160009054906101000a900463ffffffff1663ffffffff1663ffffffff1681526020016000820160049054906101000a900463ffffffff1663ffffffff1663ffffffff1681526020016000820160089054906101000a900463ffffffff1663ffffffff1663ffffffff16815260200160008201600c9054906101000a900463ffffffff1663ffffffff1663ffffffff1681526020016001820180546103a890612c8b565b80601f01602080910402602001604051908101604052809291908181526020018280546103d490612c8b565b80156104215780601f106103f657610100808354040283529160200191610421565b820191906000526020600020905b81548152906001019060200180831161040457829003601f168201915b5050505050815260200160028201805461043a90612c8b565b80601f016020809104026020016040519081016040528092919081815260200182805461046690612c8b565b80156104b35780601f10610488576101008083540402835291602001916104b3565b820191906000526020600020905b81548152906001019060200180831161049657829003601f168201915b50505050508152602001600382015481525050815260200190600101906102dd565b50505050905090565b60606104e982611890565b9050919050565b60036020528060005260406000206000915054906101000a900473ffffffffffffffffffffffffffffffffffffffff1681565b60606000600b60008481526020019081526020016000205467ffffffffffffffff81111561057a577f4e487b7100000000000000000000000000000000000000000000000000000000600052604160045260246000fd5b6040519080825280602002602001820160405280156105b357816020015b6105a0611e23565b8152602001906001900390816105985790505b5090506000805b600a805490508110156108645784600c600083815260200190815260200160002054141561085157600a818154811061061c577f4e487b7100000000000000000000000000000000000000000000000000000000600052603260045260246000fd5b90600052602060002090600602016002016040518060e00160405290816000820160009054906101000a900463ffffffff1663ffffffff1663ffffffff1681526020016000820160049054906101000a900463ffffffff1663ffffffff1663ffffffff1681526020016000820160089054906101000a900463ffffffff1663ffffffff1663ffffffff16815260200160008201600c9054906101000a900463ffffffff1663ffffffff1663ffffffff1681526020016001820180546106e090612c8b565b80601f016020809104026020016040519081016040528092919081815260200182805461070c90612c8b565b80156107595780601f1061072e57610100808354040283529160200191610759565b820191906000526020600020905b81548152906001019060200180831161073c57829003601f168201915b5050505050815260200160028201805461077290612c8b565b80601f016020809104026020016040519081016040528092919081815260200182805461079e90612c8b565b80156107eb5780601f106107c0576101008083540402835291602001916107eb565b820191906000526020600020905b8154815290600101906020018083116107ce57829003601f168201915b50505050508152602001600382015481525050838381518110610837577f4e487b7100000000000000000000000000000000000000000000000000000000600052603260045260246000fd5b6020026020010181905250818061084d90612cee565b9250505b808061085c90612cee565b9150506105ba565b508192505050919050565b610877611e78565b600282815481106108b1577f4e487b7100000000000000000000000000000000000000000000000000000000600052603260045260246000fd5b9060005260206000209060090201604051806101800160405290816000820154815260200160018201548152602001600282015481526020016003820160009054906101000a900467ffffffffffffffff1667ffffffffffffffff1667ffffffffffffffff1681526020016003820160089054906101000a900467ffffffffffffffff1667ffffffffffffffff1667ffffffffffffffff1681526020016003820160109054906101000a900467ffffffffffffffff1667ffffffffffffffff1667ffffffffffffffff1681526020016003820160189054906101000a900463ffffffff1663ffffffff1663ffffffff16815260200160038201601c9054906101000a900463ffffffff1663ffffffff1663ffffffff168152602001600482016040518060400160405290816000820154815260200160018201548152505081526020016006820160009054906101000a900461ffff1661ffff1661ffff168152602001600782018054610a2390612c8b565b80601f0160208091040260200160405190810160405280929190818152602001828054610a4f90612c8b565b8015610a9c5780601f10610a7157610100808354040283529160200191610a9c565b820191906000526020600020905b815481529060010190602001808311610a7f57829003601f168201915b50505050508152602001600882018054610ab590612c8b565b80601f0160208091040260200160405190810160405280929190818152602001828054610ae190612c8b565b8015610b2e5780601f10610b0357610100808354040283529160200191610b2e565b820191906000526020600020905b815481529060010190602001808311610b1157829003601f168201915b5050505050815250509050919050565b60606002805480602002602001604051908101604052809291908181526020016000905b82821015610e015783829060005260206000209060090201604051806101800160405290816000820154815260200160018201548152602001600282015481526020016003820160009054906101000a900467ffffffffffffffff1667ffffffffffffffff1667ffffffffffffffff1681526020016003820160089054906101000a900467ffffffffffffffff1667ffffffffffffffff1667ffffffffffffffff1681526020016003820160109054906101000a900467ffffffffffffffff1667ffffffffffffffff1667ffffffffffffffff1681526020016003820160189054906101000a900463ffffffff1663ffffffff1663ffffffff16815260200160038201601c9054906101000a900463ffffffff1663ffffffff1663ffffffff168152602001600482016040518060400160405290816000820154815260200160018201548152505081526020016006820160009054906101000a900461ffff1661ffff1661ffff168152602001600782018054610cde90612c8b565b80601f0160208091040260200160405190810160405280929190818152602001828054610d0a90612c8b565b8015610d575780601f10610d2c57610100808354040283529160200191610d57565b820191906000526020600020905b815481529060010190602001808311610d3a57829003601f168201915b50505050508152602001600882018054610d7090612c8b565b80601f0160208091040260200160405190810160405280929190818152602001828054610d9c90612c8b565b8015610de95780601f10610dbe57610100808354040283529160200191610de9565b820191906000526020600020905b815481529060010190602001808311610dcc57829003601f168201915b50505050508152505081526020019060010190610b62565b50505050905090565b610e12611cf8565b73ffffffffffffffffffffffffffffffffffffffff16610e30611557565b73ffffffffffffffffffffffffffffffffffffffff1614610e86576040517f08c379a0000000000000000000000000000000000000000000000000000000008152600401610e7d9061293e565b60405180910390fd5b610e906000611d00565b565b610e9a611cf8565b73ffffffffffffffffffffffffffffffffffffffff16610eb8611557565b73ffffffffffffffffffffffffffffffffffffffff1614610f0e576040517f08c379a0000000000000000000000000000000000000000000000000000000008152600401610f059061293e565b60405180910390fd5b60096040518060e001604052808963ffffffff1681526020018863ffffffff1681526020018763ffffffff1681526020018663ffffffff16815260200185815260200184815260200183815250908060018154018082558091505060019003906000526020600020906004020160009091909190915060008201518160000160006101000a81548163ffffffff021916908363ffffffff16021790555060208201518160000160046101000a81548163ffffffff021916908363ffffffff16021790555060408201518160000160086101000a81548163ffffffff021916908363ffffffff160217905550606082015181600001600c6101000a81548163ffffffff021916908363ffffffff160217905550608082015181600101908051906020019061103c929190611f0d565b5060a0820151816002019080519060200190611059929190611f0d565b5060c08201518160030155505050505050505050565b611077611f93565b61107f611f93565b6110be846040518060400160405280600481526020017f6669726500000000000000000000000000000000000000000000000000000000815250611dc4565b156111935760086040518060800160405290816000820160009054906101000a900467ffffffffffffffff1667ffffffffffffffff1667ffffffffffffffff1681526020016000820160089054906101000a900467ffffffffffffffff1667ffffffffffffffff1667ffffffffffffffff1681526020016000820160109054906101000a900467ffffffffffffffff1667ffffffffffffffff1667ffffffffffffffff1681526020016000820160189054906101000a900463ffffffff1663ffffffff1663ffffffff16815250509050611489565b6111d2846040518060400160405280600581526020017f6561727468000000000000000000000000000000000000000000000000000000815250611dc4565b156112a75760076040518060800160405290816000820160009054906101000a900467ffffffffffffffff1667ffffffffffffffff1667ffffffffffffffff1681526020016000820160089054906101000a900467ffffffffffffffff1667ffffffffffffffff1667ffffffffffffffff1681526020016000820160109054906101000a900467ffffffffffffffff1667ffffffffffffffff1667ffffffffffffffff1681526020016000820160189054906101000a900463ffffffff1663ffffffff1663ffffffff16815250509050611488565b6112e6846040518060400160405280600581526020017f7761746572000000000000000000000000000000000000000000000000000000815250611dc4565b156113bb5760066040518060800160405290816000820160009054906101000a900467ffffffffffffffff1667ffffffffffffffff1667ffffffffffffffff1681526020016000820160089054906101000a900467ffffffffffffffff1667ffffffffffffffff1667ffffffffffffffff1681526020016000820160109054906101000a900467ffffffffffffffff1667ffffffffffffffff1667ffffffffffffffff1681526020016000820160189054906101000a900463ffffffff1663ffffffff1663ffffffff16815250509050611487565b60056040518060800160405290816000820160009054906101000a900467ffffffffffffffff1667ffffffffffffffff1667ffffffffffffffff1681526020016000820160089054906101000a900467ffffffffffffffff1667ffffffffffffffff1667ffffffffffffffff1681526020016000820160109054906101000a900467ffffffffffffffff1667ffffffffffffffff1667ffffffffffffffff1681526020016000820160189054906101000a900463ffffffff1663ffffffff1663ffffffff168152505090505b5b5b82600001518160000181815161149f9190612b9d565b91509067ffffffffffffffff16908167ffffffffffffffff16815250508260200151816020018181516114d29190612b9d565b91509067ffffffffffffffff16908167ffffffffffffffff16815250508260400151816040018181516115059190612b9d565b91509067ffffffffffffffff16908167ffffffffffffffff16815250508260600151816060018181516115389190612b63565b91509063ffffffff16908163ffffffff16815250508091505092915050565b60008060009054906101000a900473ffffffffffffffffffffffffffffffffffffffff16905090565b6002818154811061159057600080fd5b90600052602060002090600902016000915090508060000154908060010154908060020154908060030160009054906101000a900467ffffffffffffffff16908060030160089054906101000a900467ffffffffffffffff16908060030160109054906101000a900467ffffffffffffffff16908060030160189054906101000a900463ffffffff169080600301601c9054906101000a900463ffffffff16908060040160405180604001604052908160008201548152602001600182015481525050908060060160009054906101000a900461ffff169080600701805461167790612c8b565b80601f01602080910402602001604051908101604052809291908181526020018280546116a390612c8b565b80156116f05780601f106116c5576101008083540402835291602001916116f0565b820191906000526020600020905b8154815290600101906020018083116116d357829003601f168201915b50505050509080600801805461170590612c8b565b80601f016020809104026020016040519081016040528092919081815260200182805461173190612c8b565b801561177e5780601f106117535761010080835404028352916020019161177e565b820191906000526020600020905b81548152906001019060200180831161176157829003601f168201915b505050505090508c565b611790611cf8565b73ffffffffffffffffffffffffffffffffffffffff166117ae611557565b73ffffffffffffffffffffffffffffffffffffffff1614611804576040517f08c379a00000000000000000000000000000000000000000000000000000000081526004016117fb9061293e565b60405180910390fd5b600073ffffffffffffffffffffffffffffffffffffffff168173ffffffffffffffffffffffffffffffffffffffff161415611874576040517f08c379a000000000000000000000000000000000000000000000000000000000815260040161186b9061291e565b60405180910390fd5b61187d81611d00565b50565b606061188b33611890565b905090565b60606000600460008473ffffffffffffffffffffffffffffffffffffffff1673ffffffffffffffffffffffffffffffffffffffff1681526020019081526020016000205467ffffffffffffffff811115611913577f4e487b7100000000000000000000000000000000000000000000000000000000600052604160045260246000fd5b60405190808252806020026020018201604052801561194c57816020015b611939611e78565b8152602001906001900390816119315790505b5090506000805b600280549050811015611ced578473ffffffffffffffffffffffffffffffffffffffff166003600083815260200190815260200160002060009054906101000a900473ffffffffffffffffffffffffffffffffffffffff1673ffffffffffffffffffffffffffffffffffffffff161415611cda5760028181548110611a01577f4e487b7100000000000000000000000000000000000000000000000000000000600052603260045260246000fd5b9060005260206000209060090201604051806101800160405290816000820154815260200160018201548152602001600282015481526020016003820160009054906101000a900467ffffffffffffffff1667ffffffffffffffff1667ffffffffffffffff1681526020016003820160089054906101000a900467ffffffffffffffff1667ffffffffffffffff1667ffffffffffffffff1681526020016003820160109054906101000a900467ffffffffffffffff1667ffffffffffffffff1667ffffffffffffffff1681526020016003820160189054906101000a900463ffffffff1663ffffffff1663ffffffff16815260200160038201601c9054906101000a900463ffffffff1663ffffffff1663ffffffff168152602001600482016040518060400160405290816000820154815260200160018201548152505081526020016006820160009054906101000a900461ffff1661ffff1661ffff168152602001600782018054611b7390612c8b565b80601f0160208091040260200160405190810160405280929190818152602001828054611b9f90612c8b565b8015611bec5780601f10611bc157610100808354040283529160200191611bec565b820191906000526020600020905b815481529060010190602001808311611bcf57829003601f168201915b50505050508152602001600882018054611c0590612c8b565b80601f0160208091040260200160405190810160405280929190818152602001828054611c3190612c8b565b8015611c7e5780601f10611c5357610100808354040283529160200191611c7e565b820191906000526020600020905b815481529060010190602001808311611c6157829003601f168201915b505050505081525050838381518110611cc0577f4e487b7100000000000000000000000000000000000000000000000000000000600052603260045260246000fd5b60200260200101819052508180611cd690612cee565b9250505b8080611ce590612cee565b915050611953565b508192505050919050565b600033905090565b60008060009054906101000a900473ffffffffffffffffffffffffffffffffffffffff169050816000806101000a81548173ffffffffffffffffffffffffffffffffffffffff021916908373ffffffffffffffffffffffffffffffffffffffff1602179055508173ffffffffffffffffffffffffffffffffffffffff168173ffffffffffffffffffffffffffffffffffffffff167f8be0079c531659141344cd1fd0a4f28419497f9722a3daafe3b4186f6b6457e060405160405180910390a35050565b600081604051602001611dd791906128a8565b6040516020818303038152906040528051906020012060001c83604051602001611e0191906128a8565b6040516020818303038152906040528051906020012060001c14905092915050565b6040518060e00160405280600063ffffffff168152602001600063ffffffff168152602001600063ffffffff168152602001600063ffffffff1681526020016060815260200160608152602001600081525090565b604051806101800160405280600081526020016000815260200160008152602001600067ffffffffffffffff168152602001600067ffffffffffffffff168152602001600067ffffffffffffffff168152602001600063ffffffff168152602001600063ffffffff168152602001611eee611fdf565b8152602001600061ffff16815260200160608152602001606081525090565b828054611f1990612c8b565b90600052602060002090601f016020900481019282611f3b5760008555611f82565b82601f10611f5457805160ff1916838001178555611f82565b82800160010185558215611f82579182015b82811115611f81578251825591602001919060010190611f66565b5b509050611f8f9190611ff9565b5090565b6040518060800160405280600067ffffffffffffffff168152602001600067ffffffffffffffff168152602001600067ffffffffffffffff168152602001600063ffffffff1681525090565b604051806040016040528060008152602001600081525090565b5b80821115612012576000816000905550600101611ffa565b5090565b600061202961202484612a88565b612a63565b90508281526020810184848401111561204157600080fd5b61204c848285612c49565b509392505050565b60008135905061206381612e4d565b92915050565b600082601f83011261207a57600080fd5b813561208a848260208601612016565b91505092915050565b6000608082840312156120a557600080fd5b6120af6080612a63565b905060006120bf84828501612131565b60008301525060206120d384828501612131565b60208301525060406120e784828501612131565b60408301525060606120fb8482850161211c565b60608301525092915050565b60008135905061211681612e64565b92915050565b60008135905061212b81612e7b565b92915050565b60008135905061214081612e92565b92915050565b60006020828403121561215857600080fd5b600061216684828501612054565b91505092915050565b60008060a0838503121561218257600080fd5b600083013567ffffffffffffffff81111561219c57600080fd5b6121a885828601612069565b92505060206121b985828601612093565b9150509250929050565b6000602082840312156121d557600080fd5b60006121e384828501612107565b91505092915050565b600080600080600080600060e0888a03121561220757600080fd5b60006122158a828b0161211c565b97505060206122268a828b0161211c565b96505060406122378a828b0161211c565b95505060606122488a828b0161211c565b945050608088013567ffffffffffffffff81111561226557600080fd5b6122718a828b01612069565b93505060a088013567ffffffffffffffff81111561228e57600080fd5b61229a8a828b01612069565b92505060c06122ab8a828b01612107565b91505092959891949750929550565b60006122c683836124c4565b905092915050565b60006122da8383612567565b905092915050565b6122eb81612bdb565b82525050565b60006122fc82612ad9565b6123068185612b14565b93508360208202850161231885612ab9565b8060005b85811015612354578484038952815161233585826122ba565b945061234083612afa565b925060208a0199505060018101905061231c565b50829750879550505050505092915050565b600061237182612ae4565b61237b8185612b25565b93508360208202850161238d85612ac9565b8060005b858110156123c957848403895281516123aa85826122ce565b94506123b583612b07565b925060208a01995050600181019050612391565b50829750879550505050505092915050565b60006123e682612aef565b6123f08185612b36565b9350612400818560208601612c58565b61240981612dc4565b840191505092915050565b600061241f82612aef565b6124298185612b47565b9350612439818560208601612c58565b61244281612dc4565b840191505092915050565b600061245882612aef565b6124628185612b58565b9350612472818560208601612c58565b80840191505092915050565b600061248b602683612b47565b915061249682612dd5565b604082019050919050565b60006124ae602083612b47565b91506124b982612e24565b602082019050919050565b600060e0830160008301516124dc600086018261286c565b5060208301516124ef602086018261286c565b506040830151612502604086018261286c565b506060830151612515606086018261286c565b506080830151848203608086015261252d82826123db565b91505060a083015184820360a086015261254782826123db565b91505060c083015161255c60c086018261284e565b508091505092915050565b60006101a083016000830151612580600086018261284e565b506020830151612593602086018261284e565b5060408301516125a6604086018261284e565b5060608301516125b9606086018261288a565b5060808301516125cc608086018261288a565b5060a08301516125df60a086018261288a565b5060c08301516125f260c086018261286c565b5060e083015161260560e086018261286c565b5061010083015161261a6101008601826127d2565b5061012083015161262f610140860182612830565b5061014083015184820361016086015261264982826123db565b91505061016083015184820361018086015261266582826123db565b9150508091505092915050565b60006101a08301600083015161268b600086018261284e565b50602083015161269e602086018261284e565b5060408301516126b1604086018261284e565b5060608301516126c4606086018261288a565b5060808301516126d7608086018261288a565b5060a08301516126ea60a086018261288a565b5060c08301516126fd60c086018261286c565b5060e083015161271060e086018261286c565b506101008301516127256101008601826127d2565b5061012083015161273a610140860182612830565b5061014083015184820361016086015261275482826123db565b91505061016083015184820361018086015261277082826123db565b9150508091505092915050565b608082016000820151612793600085018261288a565b5060208201516127a6602085018261288a565b5060408201516127b9604085018261288a565b5060608201516127cc606085018261286c565b50505050565b6040820160008201516127e8600085018261284e565b5060208201516127fb602085018261284e565b50505050565b604082016000820151612817600085018261284e565b50602082015161282a602085018261284e565b50505050565b61283981612bed565b82525050565b61284881612bed565b82525050565b61285781612c1b565b82525050565b61286681612c1b565b82525050565b61287581612c25565b82525050565b61288481612c25565b82525050565b61289381612c35565b82525050565b6128a281612c35565b82525050565b60006128b4828461244d565b915081905092915050565b60006020820190506128d460008301846122e2565b92915050565b600060208201905081810360008301526128f481846122f1565b905092915050565b600060208201905081810360008301526129168184612366565b905092915050565b600060208201905081810360008301526129378161247e565b9050919050565b60006020820190508181036000830152612957816124a1565b9050919050565b600060208201905081810360008301526129788184612672565b905092915050565b6000608082019050612995600083018461277d565b92915050565b60006101a0820190506129b1600083018f61285d565b6129be602083018e61285d565b6129cb604083018d61285d565b6129d8606083018c612899565b6129e5608083018b612899565b6129f260a083018a612899565b6129ff60c083018961287b565b612a0c60e083018861287b565b612a1a610100830187612801565b612a2861014083018661283f565b818103610160830152612a3b8185612414565b9050818103610180830152612a508184612414565b90509d9c50505050505050505050505050565b6000612a6d612a7e565b9050612a798282612cbd565b919050565b6000604051905090565b600067ffffffffffffffff821115612aa357612aa2612d95565b5b612aac82612dc4565b9050602081019050919050565b6000819050602082019050919050565b6000819050602082019050919050565b600081519050919050565b600081519050919050565b600081519050919050565b6000602082019050919050565b6000602082019050919050565b600082825260208201905092915050565b600082825260208201905092915050565b600082825260208201905092915050565b600082825260208201905092915050565b600081905092915050565b6000612b6e82612c25565b9150612b7983612c25565b92508263ffffffff03821115612b9257612b91612d37565b5b828201905092915050565b6000612ba882612c35565b9150612bb383612c35565b92508267ffffffffffffffff03821115612bd057612bcf612d37565b5b828201905092915050565b6000612be682612bfb565b9050919050565b600061ffff82169050919050565b600073ffffffffffffffffffffffffffffffffffffffff82169050919050565b6000819050919050565b600063ffffffff82169050919050565b600067ffffffffffffffff82169050919050565b82818337600083830152505050565b60005b83811015612c76578082015181840152602081019050612c5b565b83811115612c85576000848401525b50505050565b60006002820490506001821680612ca357607f821691505b60208210811415612cb757612cb6612d66565b5b50919050565b612cc682612dc4565b810181811067ffffffffffffffff82111715612ce557612ce4612d95565b5b80604052505050565b6000612cf982612c1b565b91507fffffffffffffffffffffffffffffffffffffffffffffffffffffffffffffffff821415612d2c57612d2b612d37565b5b600182019050919050565b7f4e487b7100000000000000000000000000000000000000000000000000000000600052601160045260246000fd5b7f4e487b7100000000000000000000000000000000000000000000000000000000600052602260045260246000fd5b7f4e487b7100000000000000000000000000000000000000000000000000000000600052604160045260246000fd5b6000601f19601f8301169050919050565b7f4f776e61626c653a206e6577206f776e657220697320746865207a65726f206160008201527f6464726573730000000000000000000000000000000000000000000000000000602082015250565b7f4f776e61626c653a2063616c6c6572206973206e6f7420746865206f776e6572600082015250565b612e5681612bdb565b8114612e6157600080fd5b50565b612e6d81612c1b565b8114612e7857600080fd5b50565b612e8481612c25565b8114612e8f57600080fd5b50565b612e9b81612c35565b8114612ea657600080fd5b5056fea26469706673582212203330a4e10fc420d281330741a67d9c74fb4218e0ff71ababd578dd9ea01f37b464736f6c63430008040033",
  "linkReferences": {},
  "deployedLinkReferences": {}
}