{
  "_format": "hh-sol-artifact-1",
  "contractName": "Bending",
  "sourceName": "contracts/Bending.sol",
  "abi": [
    {
      "anonymous": false,
      "inputs": [
        {
          "indexed": false,
          "internalType": "string",
          "name": "benderName",
          "type": "string"
        },
        {
          "indexed": false,
          "internalType": "uint256",
          "name": "damage",
          "type": "uint256"
        },
        {
          "indexed": false,
          "internalType": "string",
          "name": "message",
          "type": "string"
        }
      ],
      "name": "AttackAction",
      "type": "event"
    },
    {
      "anonymous": false,
      "inputs": [
        {
          "indexed": false,
          "internalType": "uint256",
          "name": "damage",
          "type": "uint256"
        },
        {
          "indexed": false,
          "internalType": "uint256",
          "name": "damageReceived",
          "type": "uint256"
        },
        {
          "indexed": false,
          "internalType": "string",
          "name": "winner",
          "type": "string"
        }
      ],
      "name": "FightResult",
      "type": "event"
    },
    {
      "anonymous": false,
      "inputs": [
        {
          "indexed": true,
          "internalType": "address",
          "name": "previousOwner",
          "type": "address"
        },
        {
          "indexed": true,
          "internalType": "address",
          "name": "newOwner",
          "type": "address"
        }
      ],
      "name": "OwnershipTransferred",
      "type": "event"
    },
    {
      "inputs": [
        {
          "internalType": "uint256",
          "name": "",
          "type": "uint256"
        }
      ],
      "name": "benderToOwner",
      "outputs": [
        {
          "internalType": "address",
          "name": "",
          "type": "address"
        }
      ],
      "stateMutability": "view",
      "type": "function"
    },
    {
      "inputs": [
        {
          "internalType": "uint256",
          "name": "",
          "type": "uint256"
        }
      ],
      "name": "benders",
      "outputs": [
        {
          "internalType": "uint256",
          "name": "tokenId",
          "type": "uint256"
        },
        {
          "internalType": "uint256",
          "name": "health",
          "type": "uint256"
        },
        {
          "internalType": "uint256",
          "name": "experience",
          "type": "uint256"
        },
        {
          "internalType": "string",
          "name": "name",
          "type": "string"
        },
        {
          "internalType": "uint32",
          "name": "chi",
          "type": "uint32"
        },
        {
          "internalType": "uint32",
          "name": "level",
          "type": "uint32"
        },
        {
          "internalType": "uint32",
          "name": "readyAt",
          "type": "uint32"
        },
        {
          "internalType": "string",
          "name": "element",
          "type": "string"
        },
        {
          "components": [
            {
              "internalType": "uint32",
              "name": "maxDamage",
              "type": "uint32"
            },
            {
              "internalType": "uint32",
              "name": "minDamage",
              "type": "uint32"
            },
            {
              "internalType": "uint32",
              "name": "precision",
              "type": "uint32"
            },
            {
              "internalType": "string",
              "name": "name",
              "type": "string"
            },
            {
              "internalType": "string",
              "name": "element",
              "type": "string"
            },
            {
              "internalType": "uint32",
              "name": "cost",
              "type": "uint32"
            }
          ],
          "internalType": "struct BenderBase.Attack",
          "name": "attack",
          "type": "tuple"
        },
        {
          "internalType": "uint16",
          "name": "wins",
          "type": "uint16"
        },
        {
          "internalType": "uint16",
          "name": "losses",
          "type": "uint16"
        },
        {
          "internalType": "uint16",
          "name": "points",
          "type": "uint16"
        }
      ],
      "stateMutability": "view",
      "type": "function"
    },
    {
      "inputs": [
        {
          "internalType": "string",
          "name": "_name",
          "type": "string"
        },
        {
          "internalType": "string",
          "name": "_element",
          "type": "string"
        }
      ],
      "name": "createRandomBender",
      "outputs": [],
      "stateMutability": "nonpayable",
      "type": "function"
    },
    {
      "inputs": [
        {
          "internalType": "uint256",
          "name": "_benderId",
          "type": "uint256"
        },
        {
          "internalType": "uint256",
          "name": "_targetId",
          "type": "uint256"
        }
      ],
      "name": "fight",
      "outputs": [],
      "stateMutability": "nonpayable",
      "type": "function"
    },
    {
      "inputs": [],
      "name": "getBenders",
      "outputs": [
        {
          "components": [
            {
              "internalType": "uint256",
              "name": "tokenId",
              "type": "uint256"
            },
            {
              "internalType": "uint256",
              "name": "health",
              "type": "uint256"
            },
            {
              "internalType": "uint256",
              "name": "experience",
              "type": "uint256"
            },
            {
              "internalType": "string",
              "name": "name",
              "type": "string"
            },
            {
              "internalType": "uint32",
              "name": "chi",
              "type": "uint32"
            },
            {
              "internalType": "uint32",
              "name": "level",
              "type": "uint32"
            },
            {
              "internalType": "uint32",
              "name": "readyAt",
              "type": "uint32"
            },
            {
              "internalType": "string",
              "name": "element",
              "type": "string"
            },
            {
              "components": [
                {
                  "internalType": "uint32",
                  "name": "maxDamage",
                  "type": "uint32"
                },
                {
                  "internalType": "uint32",
                  "name": "minDamage",
                  "type": "uint32"
                },
                {
                  "internalType": "uint32",
                  "name": "precision",
                  "type": "uint32"
                },
                {
                  "internalType": "string",
                  "name": "name",
                  "type": "string"
                },
                {
                  "internalType": "string",
                  "name": "element",
                  "type": "string"
                },
                {
                  "internalType": "uint32",
                  "name": "cost",
                  "type": "uint32"
                }
              ],
              "internalType": "struct BenderBase.Attack",
              "name": "attack",
              "type": "tuple"
            },
            {
              "internalType": "uint16",
              "name": "wins",
              "type": "uint16"
            },
            {
              "internalType": "uint16",
              "name": "losses",
              "type": "uint16"
            },
            {
              "internalType": "uint16",
              "name": "points",
              "type": "uint16"
            }
          ],
          "internalType": "struct BenderBase.Bender[]",
          "name": "",
          "type": "tuple[]"
        }
      ],
      "stateMutability": "view",
      "type": "function"
    },
    {
      "inputs": [
        {
          "internalType": "address",
          "name": "_owner",
          "type": "address"
        }
      ],
      "name": "getBendersByOwner",
      "outputs": [
        {
          "internalType": "uint256[]",
          "name": "",
          "type": "uint256[]"
        }
      ],
      "stateMutability": "view",
      "type": "function"
    },
    {
      "inputs": [
        {
          "internalType": "uint256",
          "name": "_benderId",
          "type": "uint256"
        }
      ],
      "name": "levelUp",
      "outputs": [],
      "stateMutability": "payable",
      "type": "function"
    },
    {
      "inputs": [
        {
          "internalType": "string",
          "name": "_name",
          "type": "string"
        },
        {
          "internalType": "string",
          "name": "_element",
          "type": "string"
        }
      ],
      "name": "mintBender",
      "outputs": [],
      "stateMutability": "nonpayable",
      "type": "function"
    },
    {
      "inputs": [],
      "name": "owner",
      "outputs": [
        {
          "internalType": "address",
          "name": "",
          "type": "address"
        }
      ],
      "stateMutability": "view",
      "type": "function"
    },
    {
      "inputs": [],
      "name": "renounceOwnership",
      "outputs": [],
      "stateMutability": "nonpayable",
      "type": "function"
    },
    {
      "inputs": [
        {
          "internalType": "uint256",
          "name": "_fee",
          "type": "uint256"
        }
      ],
      "name": "setLevelUpFee",
      "outputs": [],
      "stateMutability": "nonpayable",
      "type": "function"
    },
    {
      "inputs": [
        {
          "internalType": "address",
          "name": "newOwner",
          "type": "address"
        }
      ],
      "name": "transferOwnership",
      "outputs": [],
      "stateMutability": "nonpayable",
      "type": "function"
    }
  ],
  "bytecode": "0x6080604052603c60025566038d7ea4c68000600655600060075560056008553480156200002b57600080fd5b506200004c620000406200005260201b60201c565b6200005a60201b60201c565b6200011e565b600033905090565b60008060009054906101000a900473ffffffffffffffffffffffffffffffffffffffff169050816000806101000a81548173ffffffffffffffffffffffffffffffffffffffff021916908373ffffffffffffffffffffffffffffffffffffffff1602179055508173ffffffffffffffffffffffffffffffffffffffff168173ffffffffffffffffffffffffffffffffffffffff167f8be0079c531659141344cd1fd0a4f28419497f9722a3daafe3b4186f6b6457e060405160405180910390a35050565b612d35806200012e6000396000f3fe6080604052600436106100a75760003560e01c8063ca39e5ef11610064578063ca39e5ef146101af578063ccf670f8146101d8578063d120d7d314610201578063d2c412ee1461022a578063d46bc7da14610272578063f2fde38b1461029b576100a7565b80630ce90ec2146100ac57806311132ace146100c85780632a6225e4146101055780636fc082cc14610142578063715018a61461016d5780638da5cb5b14610184575b600080fd5b6100c660048036038101906100c19190611e95565b6102c4565b005b3480156100d457600080fd5b506100ef60048036038101906100ea9190611e00565b61035f565b6040516100fc91906124ba565b60405180910390f35b34801561011157600080fd5b5061012c60048036038101906101279190611e95565b6104fe565b604051610139919061247d565b60405180910390f35b34801561014e57600080fd5b50610157610531565b6040516101649190612498565b60405180910390f35b34801561017957600080fd5b50610182610975565b005b34801561019057600080fd5b506101996109fd565b6040516101a6919061247d565b60405180910390f35b3480156101bb57600080fd5b506101d660048036038101906101d19190611ebe565b610a26565b005b3480156101e457600080fd5b506101ff60048036038101906101fa9190611e95565b610f75565b005b34801561020d57600080fd5b5061022860048036038101906102239190611e29565b610ffb565b005b34801561023657600080fd5b50610251600480360381019061024c9190611e95565b61108b565b6040516102699c9b9a999897969594939291906125df565b60405180910390f35b34801561027e57600080fd5b5061029960048036038101906102949190611e29565b61142b565b005b3480156102a757600080fd5b506102c260048036038101906102bd9190611e00565b6114b5565b005b60065434146102d257600080fd5b6003818154811061030c577f4e487b7100000000000000000000000000000000000000000000000000000000600052603260045260246000fd5b90600052602060002090600b0201600401600481819054906101000a900463ffffffff168092919061033d90612a7b565b91906101000a81548163ffffffff021916908363ffffffff1602179055505050565b60606000600560008473ffffffffffffffffffffffffffffffffffffffff1673ffffffffffffffffffffffffffffffffffffffff1681526020019081526020016000205467ffffffffffffffff8111156103e2577f4e487b7100000000000000000000000000000000000000000000000000000000600052604160045260246000fd5b6040519080825280602002602001820160405280156104105781602001602082028036833780820191505090505b5090506000805b6003805490508110156104f3578473ffffffffffffffffffffffffffffffffffffffff166004600083815260200190815260200160002060009054906101000a900473ffffffffffffffffffffffffffffffffffffffff1673ffffffffffffffffffffffffffffffffffffffff1614156104e057808383815181106104c5577f4e487b7100000000000000000000000000000000000000000000000000000000600052603260045260246000fd5b60200260200101818152505081806104dc90612a32565b9250505b80806104eb90612a32565b915050610417565b508192505050919050565b60046020528060005260406000206000915054906101000a900473ffffffffffffffffffffffffffffffffffffffff1681565b60606003805480602002602001604051908101604052809291908181526020016000905b8282101561096c57838290600052602060002090600b0201604051806101800160405290816000820154815260200160018201548152602001600282015481526020016003820180546105a7906129a4565b80601f01602080910402602001604051908101604052809291908181526020018280546105d3906129a4565b80156106205780601f106105f557610100808354040283529160200191610620565b820191906000526020600020905b81548152906001019060200180831161060357829003601f168201915b505050505081526020016004820160009054906101000a900463ffffffff1663ffffffff1663ffffffff1681526020016004820160049054906101000a900463ffffffff1663ffffffff1663ffffffff1681526020016004820160089054906101000a900463ffffffff1663ffffffff1663ffffffff1681526020016005820180546106ab906129a4565b80601f01602080910402602001604051908101604052809291908181526020018280546106d7906129a4565b80156107245780601f106106f957610100808354040283529160200191610724565b820191906000526020600020905b81548152906001019060200180831161070757829003601f168201915b50505050508152602001600682016040518060c00160405290816000820160009054906101000a900463ffffffff1663ffffffff1663ffffffff1681526020016000820160049054906101000a900463ffffffff1663ffffffff1663ffffffff1681526020016000820160089054906101000a900463ffffffff1663ffffffff1663ffffffff1681526020016001820180546107bf906129a4565b80601f01602080910402602001604051908101604052809291908181526020018280546107eb906129a4565b80156108385780601f1061080d57610100808354040283529160200191610838565b820191906000526020600020905b81548152906001019060200180831161081b57829003601f168201915b50505050508152602001600282018054610851906129a4565b80601f016020809104026020016040519081016040528092919081815260200182805461087d906129a4565b80156108ca5780601f1061089f576101008083540402835291602001916108ca565b820191906000526020600020905b8154815290600101906020018083116108ad57829003601f168201915b505050505081526020016003820160009054906101000a900463ffffffff1663ffffffff1663ffffffff16815250508152602001600a820160009054906101000a900461ffff1661ffff1661ffff168152602001600a820160029054906101000a900461ffff1661ffff1661ffff168152602001600a820160049054906101000a900461ffff1661ffff1661ffff168152505081526020019060010190610555565b50505050905090565b61097d6115ad565b73ffffffffffffffffffffffffffffffffffffffff1661099b6109fd565b73ffffffffffffffffffffffffffffffffffffffff16146109f1576040517f08c379a00000000000000000000000000000000000000000000000000000000081526004016109e890612561565b60405180910390fd5b6109fb60006115b5565b565b60008060009054906101000a900473ffffffffffffffffffffffffffffffffffffffff16905090565b816004600082815260200190815260200160002060009054906101000a900473ffffffffffffffffffffffffffffffffffffffff1673ffffffffffffffffffffffffffffffffffffffff163373ffffffffffffffffffffffffffffffffffffffff1614610a9257600080fd5b600060038481548110610ace577f4e487b7100000000000000000000000000000000000000000000000000000000600052603260045260246000fd5b90600052602060002090600b02019050600060038481548110610b1a577f4e487b7100000000000000000000000000000000000000000000000000000000600052603260045260246000fd5b90600052602060002090600b02019050610b3382611679565b610b72576040517f08c379a0000000000000000000000000000000000000000000000000000000008152600401610b6990612541565b60405180910390fd5b6000610b7e83836116a0565b90506000610b8c83856116a0565b9050606081831115610d245784600401600481819054906101000a900463ffffffff1680929190610bbc90612a7b565b91906101000a81548163ffffffff021916908363ffffffff1602179055505084600a01600081819054906101000a900461ffff1680929190610bfd90612a07565b91906101000a81548161ffff021916908361ffff160217905550508285600a0160048282829054906101000a900461ffff16610c3991906127b8565b92506101000a81548161ffff021916908361ffff16021790555083600a01600281819054906101000a900461ffff1680929190610c7590612a07565b91906101000a81548161ffff021916908361ffff16021790555050846003018054610c9f906129a4565b80601f0160208091040260200160405190810160405280929190818152602001828054610ccb906129a4565b8015610d185780601f10610ced57610100808354040283529160200191610d18565b820191906000526020600020905b815481529060010190602001808311610cfb57829003601f168201915b50505050509050610e69565b836003018054610d33906129a4565b80601f0160208091040260200160405190810160405280929190818152602001828054610d5f906129a4565b8015610dac5780601f10610d8157610100808354040283529160200191610dac565b820191906000526020600020905b815481529060010190602001808311610d8f57829003601f168201915b5050505050905084600a01600281819054906101000a900461ffff1680929190610dd590612a07565b91906101000a81548161ffff021916908361ffff160217905550508184600a0160048282829054906101000a900461ffff16610e1191906127b8565b92506101000a81548161ffff021916908361ffff16021790555083600a01600081819054906101000a900461ffff1680929190610e4d90612a07565b91906101000a81548161ffff021916908361ffff160217905550505b82856002016000828254610e7d91906127f0565b9250508190555081846002016000828254610e9891906127f0565b92505081905550610ea8856117b2565b7f92591f233bfe90a892eaaefc4e4b1d40cb92f2a692280271d3aff8a248d5ed93856003018487600601600101604051610ee4939291906124dc565b60405180910390a17f92591f233bfe90a892eaaefc4e4b1d40cb92f2a692280271d3aff8a248d5ed93846003018386600601600101604051610f28939291906124dc565b60405180910390a17f4d3f94cfb1aa6e003aef46c78c3b379cf3e7ba96d03e0cd2a5bd0b7edcc67a8e838383604051610f63939291906125a1565b60405180910390a15050505050505050565b610f7d6115ad565b73ffffffffffffffffffffffffffffffffffffffff16610f9b6109fd565b73ffffffffffffffffffffffffffffffffffffffff1614610ff1576040517f08c379a0000000000000000000000000000000000000000000000000000000008152600401610fe890612561565b60405180910390fd5b8060068190555050565b6000600560003373ffffffffffffffffffffffffffffffffffffffff1673ffffffffffffffffffffffffffffffffffffffff168152602001908152602001600020541461107d576040517f08c379a000000000000000000000000000000000000000000000000000000000815260040161107490612581565b60405180910390fd5b61108782826117e5565b5050565b6003818154811061109b57600080fd5b90600052602060002090600b02016000915090508060000154908060010154908060020154908060030180546110d0906129a4565b80601f01602080910402602001604051908101604052809291908181526020018280546110fc906129a4565b80156111495780601f1061111e57610100808354040283529160200191611149565b820191906000526020600020905b81548152906001019060200180831161112c57829003601f168201915b5050505050908060040160009054906101000a900463ffffffff16908060040160049054906101000a900463ffffffff16908060040160089054906101000a900463ffffffff16908060050180546111a0906129a4565b80601f01602080910402602001604051908101604052809291908181526020018280546111cc906129a4565b80156112195780601f106111ee57610100808354040283529160200191611219565b820191906000526020600020905b8154815290600101906020018083116111fc57829003601f168201915b505050505090806006016040518060c00160405290816000820160009054906101000a900463ffffffff1663ffffffff1663ffffffff1681526020016000820160049054906101000a900463ffffffff1663ffffffff1663ffffffff1681526020016000820160089054906101000a900463ffffffff1663ffffffff1663ffffffff1681526020016001820180546112b0906129a4565b80601f01602080910402602001604051908101604052809291908181526020018280546112dc906129a4565b80156113295780601f106112fe57610100808354040283529160200191611329565b820191906000526020600020905b81548152906001019060200180831161130c57829003601f168201915b50505050508152602001600282018054611342906129a4565b80601f016020809104026020016040519081016040528092919081815260200182805461136e906129a4565b80156113bb5780601f10611390576101008083540402835291602001916113bb565b820191906000526020600020905b81548152906001019060200180831161139e57829003601f168201915b505050505081526020016003820160009054906101000a900463ffffffff1663ffffffff1663ffffffff16815250509080600a0160009054906101000a900461ffff169080600a0160029054906101000a900461ffff169080600a0160049054906101000a900461ffff1690508c565b6114336115ad565b73ffffffffffffffffffffffffffffffffffffffff166114516109fd565b73ffffffffffffffffffffffffffffffffffffffff16146114a7576040517f08c379a000000000000000000000000000000000000000000000000000000000815260040161149e90612561565b60405180910390fd5b6114b182826117e5565b5050565b6114bd6115ad565b73ffffffffffffffffffffffffffffffffffffffff166114db6109fd565b73ffffffffffffffffffffffffffffffffffffffff1614611531576040517f08c379a000000000000000000000000000000000000000000000000000000000815260040161152890612561565b60405180910390fd5b600073ffffffffffffffffffffffffffffffffffffffff168173ffffffffffffffffffffffffffffffffffffffff1614156115a1576040517f08c379a000000000000000000000000000000000000000000000000000000000815260040161159890612521565b60405180910390fd5b6115aa816115b5565b50565b600033905090565b60008060009054906101000a900473ffffffffffffffffffffffffffffffffffffffff169050816000806101000a81548173ffffffffffffffffffffffffffffffffffffffff021916908373ffffffffffffffffffffffffffffffffffffffff1602179055508173ffffffffffffffffffffffffffffffffffffffff168173ffffffffffffffffffffffffffffffffffffffff167f8be0079c531659141344cd1fd0a4f28419497f9722a3daafe3b4186f6b6457e060405160405180910390a35050565b6000428260040160089054906101000a900463ffffffff1663ffffffff1611159050919050565b6000806116fb6008548560040160049054906101000a900463ffffffff1663ffffffff166116ce9190612846565b8560060160000160009054906101000a900463ffffffff1663ffffffff166116f691906127f0565b611b70565b90508360060160030160009054906101000a900463ffffffff1663ffffffff1684600101600082825461172e91906128a0565b925050819055508360060160030160009054906101000a900463ffffffff168460040160008282829054906101000a900463ffffffff1661176f91906128d4565b92506101000a81548163ffffffff021916908363ffffffff160217905550808360010160008282546117a191906128a0565b925050819055508091505092915050565b600254426117c091906127f0565b8160040160086101000a81548163ffffffff021916908363ffffffff16021790555050565b60006117f16001611bcc565b905060036040518061018001604052808381526020016064815260200160008152602001858152602001606463ffffffff168152602001600163ffffffff1681526020014263ffffffff16815260200184815260200161185085611bda565b8152602001600061ffff168152602001600061ffff168152602001600061ffff1681525090806001815401808255809150506001900390600052602060002090600b020160009091909190915060008201518160000155602082015181600101556040820151816002015560608201518160030190805190602001906118d7929190611c7d565b5060808201518160040160006101000a81548163ffffffff021916908363ffffffff16021790555060a08201518160040160046101000a81548163ffffffff021916908363ffffffff16021790555060c08201518160040160086101000a81548163ffffffff021916908363ffffffff16021790555060e0820151816005019080519060200190611969929190611c7d565b506101008201518160060160008201518160000160006101000a81548163ffffffff021916908363ffffffff16021790555060208201518160000160046101000a81548163ffffffff021916908363ffffffff16021790555060408201518160000160086101000a81548163ffffffff021916908363ffffffff1602179055506060820151816001019080519060200190611a05929190611c7d565b506080820151816002019080519060200190611a22929190611c7d565b5060a08201518160030160006101000a81548163ffffffff021916908363ffffffff160217905550505061012082015181600a0160006101000a81548161ffff021916908361ffff16021790555061014082015181600a0160026101000a81548161ffff021916908361ffff16021790555061016082015181600a0160046101000a81548161ffff021916908361ffff1602179055505050336004600083815260200190815260200160002060006101000a81548173ffffffffffffffffffffffffffffffffffffffff021916908373ffffffffffffffffffffffffffffffffffffffff160217905550600560003373ffffffffffffffffffffffffffffffffffffffff1673ffffffffffffffffffffffffffffffffffffffff1681526020019081526020016000206000815480929190611b5c90612a32565b9190505550611b6b6001611c67565b505050565b600060076000815480929190611b8590612a32565b9190505550814233600754604051602001611ba293929190612440565b6040516020818303038152906040528051906020012060001c611bc59190612ad6565b9050919050565b600081600001549050919050565b611be2611d03565b6040518060c00160405280600563ffffffff168152602001600163ffffffff168152602001600163ffffffff1681526020016040518060400160405280600a81526020017f41747461636b206f6620000000000000000000000000000000000000000000008152508152602001838152602001600163ffffffff168152509050919050565b6001816000016000828254019250508190555050565b828054611c89906129a4565b90600052602060002090601f016020900481019282611cab5760008555611cf2565b82601f10611cc457805160ff1916838001178555611cf2565b82800160010185558215611cf2579182015b82811115611cf1578251825591602001919060010190611cd6565b5b509050611cff9190611d51565b5090565b6040518060c00160405280600063ffffffff168152602001600063ffffffff168152602001600063ffffffff1681526020016060815260200160608152602001600063ffffffff1681525090565b5b80821115611d6a576000816000905550600101611d52565b5090565b6000611d81611d7c846126d3565b6126ae565b905082815260208101848484011115611d9957600080fd5b611da4848285612962565b509392505050565b600081359050611dbb81612cd1565b92915050565b600082601f830112611dd257600080fd5b8135611de2848260208601611d6e565b91505092915050565b600081359050611dfa81612ce8565b92915050565b600060208284031215611e1257600080fd5b6000611e2084828501611dac565b91505092915050565b60008060408385031215611e3c57600080fd5b600083013567ffffffffffffffff811115611e5657600080fd5b611e6285828601611dc1565b925050602083013567ffffffffffffffff811115611e7f57600080fd5b611e8b85828601611dc1565b9150509250929050565b600060208284031215611ea757600080fd5b6000611eb584828501611deb565b91505092915050565b60008060408385031215611ed157600080fd5b6000611edf85828601611deb565b9250506020611ef085828601611deb565b9150509250929050565b6000611f0683836122bd565b905092915050565b6000611f1a83836123ed565b60208301905092915050565b611f2f81612908565b82525050565b611f46611f4182612908565b612aa8565b82525050565b6000611f5782612739565b611f618185612774565b935083602082028501611f7385612704565b8060005b85811015611faf5784840389528151611f908582611efa565b9450611f9b8361275a565b925060208a01995050600181019050611f77565b50829750879550505050505092915050565b6000611fcc82612744565b611fd68185612785565b9350611fe183612714565b8060005b83811015612012578151611ff98882611f0e565b975061200483612767565b925050600181019050611fe5565b5085935050505092915050565b600061202a8261274f565b6120348185612796565b9350612044818560208601612971565b61204d81612bc3565b840191505092915050565b60006120638261274f565b61206d81856127a7565b935061207d818560208601612971565b61208681612bc3565b840191505092915050565b6000815461209e816129a4565b6120a881866127a7565b945060018216600081146120c357600181146120d557612108565b60ff1983168652602086019350612108565b6120de85612724565b60005b83811015612100578154818901526001820191506020810190506120e1565b808801955050505b50505092915050565b600061211e6026836127a7565b915061212982612be1565b604082019050919050565b60006121416013836127a7565b915061214c82612c30565b602082019050919050565b60006121646020836127a7565b915061216f82612c59565b602082019050919050565b60006121876023836127a7565b915061219282612c82565b604082019050919050565b600060c0830160008301516121b56000860182612422565b5060208301516121c86020860182612422565b5060408301516121db6040860182612422565b50606083015184820360608601526121f3828261201f565b9150506080830151848203608086015261220d828261201f565b91505060a083015161222260a0860182612422565b508091505092915050565b600060c0830160008301516122456000860182612422565b5060208301516122586020860182612422565b50604083015161226b6040860182612422565b5060608301518482036060860152612283828261201f565b9150506080830151848203608086015261229d828261201f565b91505060a08301516122b260a0860182612422565b508091505092915050565b6000610180830160008301516122d660008601826123ed565b5060208301516122e960208601826123ed565b5060408301516122fc60408601826123ed565b5060608301518482036060860152612314828261201f565b91505060808301516123296080860182612422565b5060a083015161233c60a0860182612422565b5060c083015161234f60c0860182612422565b5060e083015184820360e0860152612367828261201f565b915050610100830151848203610100860152612383828261219d565b91505061012083015161239a6101208601826123cf565b506101408301516123af6101408601826123cf565b506101608301516123c46101608601826123cf565b508091505092915050565b6123d88161291a565b82525050565b6123e78161291a565b82525050565b6123f681612948565b82525050565b61240581612948565b82525050565b61241c61241782612948565b612acc565b82525050565b61242b81612952565b82525050565b61243a81612952565b82525050565b600061244c828661240b565b60208201915061245c8285611f35565b60148201915061246c828461240b565b602082019150819050949350505050565b60006020820190506124926000830184611f26565b92915050565b600060208201905081810360008301526124b28184611f4c565b905092915050565b600060208201905081810360008301526124d48184611fc1565b905092915050565b600060608201905081810360008301526124f68186612091565b905061250560208301856123fc565b81810360408301526125178184612091565b9050949350505050565b6000602082019050818103600083015261253a81612111565b9050919050565b6000602082019050818103600083015261255a81612134565b9050919050565b6000602082019050818103600083015261257a81612157565b9050919050565b6000602082019050818103600083015261259a8161217a565b9050919050565b60006060820190506125b660008301866123fc565b6125c360208301856123fc565b81810360408301526125d58184612058565b9050949350505050565b6000610180820190506125f5600083018f6123fc565b612602602083018e6123fc565b61260f604083018d6123fc565b8181036060830152612621818c612058565b9050612630608083018b612431565b61263d60a083018a612431565b61264a60c0830189612431565b81810360e083015261265c8188612058565b9050818103610100830152612671818761222d565b90506126816101208301866123de565b61268f6101408301856123de565b61269d6101608301846123de565b9d9c50505050505050505050505050565b60006126b86126c9565b90506126c482826129d6565b919050565b6000604051905090565b600067ffffffffffffffff8211156126ee576126ed612b94565b5b6126f782612bc3565b9050602081019050919050565b6000819050602082019050919050565b6000819050602082019050919050565b60008190508160005260206000209050919050565b600081519050919050565b600081519050919050565b600081519050919050565b6000602082019050919050565b6000602082019050919050565b600082825260208201905092915050565b600082825260208201905092915050565b600082825260208201905092915050565b600082825260208201905092915050565b60006127c38261291a565b91506127ce8361291a565b92508261ffff038211156127e5576127e4612b07565b5b828201905092915050565b60006127fb82612948565b915061280683612948565b9250827fffffffffffffffffffffffffffffffffffffffffffffffffffffffffffffffff0382111561283b5761283a612b07565b5b828201905092915050565b600061285182612948565b915061285c83612948565b9250817fffffffffffffffffffffffffffffffffffffffffffffffffffffffffffffffff048311821515161561289557612894612b07565b5b828202905092915050565b60006128ab82612948565b91506128b683612948565b9250828210156128c9576128c8612b07565b5b828203905092915050565b60006128df82612952565b91506128ea83612952565b9250828210156128fd576128fc612b07565b5b828203905092915050565b600061291382612928565b9050919050565b600061ffff82169050919050565b600073ffffffffffffffffffffffffffffffffffffffff82169050919050565b6000819050919050565b600063ffffffff82169050919050565b82818337600083830152505050565b60005b8381101561298f578082015181840152602081019050612974565b8381111561299e576000848401525b50505050565b600060028204905060018216806129bc57607f821691505b602082108114156129d0576129cf612b65565b5b50919050565b6129df82612bc3565b810181811067ffffffffffffffff821117156129fe576129fd612b94565b5b80604052505050565b6000612a128261291a565b915061ffff821415612a2757612a26612b07565b5b600182019050919050565b6000612a3d82612948565b91507fffffffffffffffffffffffffffffffffffffffffffffffffffffffffffffffff821415612a7057612a6f612b07565b5b600182019050919050565b6000612a8682612952565b915063ffffffff821415612a9d57612a9c612b07565b5b600182019050919050565b6000612ab382612aba565b9050919050565b6000612ac582612bd4565b9050919050565b6000819050919050565b6000612ae182612948565b9150612aec83612948565b925082612afc57612afb612b36565b5b828206905092915050565b7f4e487b7100000000000000000000000000000000000000000000000000000000600052601160045260246000fd5b7f4e487b7100000000000000000000000000000000000000000000000000000000600052601260045260246000fd5b7f4e487b7100000000000000000000000000000000000000000000000000000000600052602260045260246000fd5b7f4e487b7100000000000000000000000000000000000000000000000000000000600052604160045260246000fd5b6000601f19601f8301169050919050565b60008160601b9050919050565b7f4f776e61626c653a206e6577206f776e657220697320746865207a65726f206160008201527f6464726573730000000000000000000000000000000000000000000000000000602082015250565b7f42656e646572206973206e6f7420726561647900000000000000000000000000600082015250565b7f4f776e61626c653a2063616c6c6572206973206e6f7420746865206f776e6572600082015250565b7f596f752063616e277420637265617465206d6f7265207468616e20312062656e60008201527f6465720000000000000000000000000000000000000000000000000000000000602082015250565b612cda81612908565b8114612ce557600080fd5b50565b612cf181612948565b8114612cfc57600080fd5b5056fea26469706673582212201b571ffffbfd90d9fde8bf9637b54437f0459592aa5bdc3c2f6adef131b058f564736f6c63430008040033",
  "linkReferences": {},
  "deployedLinkReferences": {}
}