{
  "_format": "hh-sol-artifact-1",
  "contractName": "BenderBase",
  "sourceName": "contracts/BenderBase.sol",
  "abi": [
    {
      "anonymous": false,
      "inputs": [
        {
          "indexed": true,
          "internalType": "address",
          "name": "previousOwner",
          "type": "address"
        },
        {
          "indexed": true,
          "internalType": "address",
          "name": "newOwner",
          "type": "address"
        }
      ],
      "name": "OwnershipTransferred",
      "type": "event"
    },
    {
      "inputs": [
        {
          "internalType": "uint256",
          "name": "",
          "type": "uint256"
        }
      ],
      "name": "benderToOwner",
      "outputs": [
        {
          "internalType": "address",
          "name": "",
          "type": "address"
        }
      ],
      "stateMutability": "view",
      "type": "function"
    },
    {
      "inputs": [
        {
          "internalType": "uint256",
          "name": "",
          "type": "uint256"
        }
      ],
      "name": "benders",
      "outputs": [
        {
          "internalType": "uint256",
          "name": "tokenId",
          "type": "uint256"
        },
        {
          "internalType": "uint256",
          "name": "health",
          "type": "uint256"
        },
        {
          "internalType": "uint256",
          "name": "experience",
          "type": "uint256"
        },
        {
          "internalType": "string",
          "name": "name",
          "type": "string"
        },
        {
          "internalType": "uint32",
          "name": "chi",
          "type": "uint32"
        },
        {
          "internalType": "uint32",
          "name": "level",
          "type": "uint32"
        },
        {
          "internalType": "uint32",
          "name": "readyAt",
          "type": "uint32"
        },
        {
          "internalType": "string",
          "name": "element",
          "type": "string"
        },
        {
          "components": [
            {
              "internalType": "uint32",
              "name": "maxDamage",
              "type": "uint32"
            },
            {
              "internalType": "uint32",
              "name": "minDamage",
              "type": "uint32"
            },
            {
              "internalType": "uint32",
              "name": "precision",
              "type": "uint32"
            },
            {
              "internalType": "string",
              "name": "name",
              "type": "string"
            },
            {
              "internalType": "string",
              "name": "element",
              "type": "string"
            },
            {
              "internalType": "uint32",
              "name": "cost",
              "type": "uint32"
            }
          ],
          "internalType": "struct BenderBase.Attack",
          "name": "attack",
          "type": "tuple"
        },
        {
          "internalType": "uint16",
          "name": "wins",
          "type": "uint16"
        },
        {
          "internalType": "uint16",
          "name": "losses",
          "type": "uint16"
        },
        {
          "internalType": "uint16",
          "name": "points",
          "type": "uint16"
        }
      ],
      "stateMutability": "view",
      "type": "function"
    },
    {
      "inputs": [
        {
          "internalType": "string",
          "name": "_name",
          "type": "string"
        },
        {
          "internalType": "string",
          "name": "_element",
          "type": "string"
        }
      ],
      "name": "createRandomBender",
      "outputs": [],
      "stateMutability": "nonpayable",
      "type": "function"
    },
    {
      "inputs": [],
      "name": "getBenders",
      "outputs": [
        {
          "components": [
            {
              "internalType": "uint256",
              "name": "tokenId",
              "type": "uint256"
            },
            {
              "internalType": "uint256",
              "name": "health",
              "type": "uint256"
            },
            {
              "internalType": "uint256",
              "name": "experience",
              "type": "uint256"
            },
            {
              "internalType": "string",
              "name": "name",
              "type": "string"
            },
            {
              "internalType": "uint32",
              "name": "chi",
              "type": "uint32"
            },
            {
              "internalType": "uint32",
              "name": "level",
              "type": "uint32"
            },
            {
              "internalType": "uint32",
              "name": "readyAt",
              "type": "uint32"
            },
            {
              "internalType": "string",
              "name": "element",
              "type": "string"
            },
            {
              "components": [
                {
                  "internalType": "uint32",
                  "name": "maxDamage",
                  "type": "uint32"
                },
                {
                  "internalType": "uint32",
                  "name": "minDamage",
                  "type": "uint32"
                },
                {
                  "internalType": "uint32",
                  "name": "precision",
                  "type": "uint32"
                },
                {
                  "internalType": "string",
                  "name": "name",
                  "type": "string"
                },
                {
                  "internalType": "string",
                  "name": "element",
                  "type": "string"
                },
                {
                  "internalType": "uint32",
                  "name": "cost",
                  "type": "uint32"
                }
              ],
              "internalType": "struct BenderBase.Attack",
              "name": "attack",
              "type": "tuple"
            },
            {
              "internalType": "uint16",
              "name": "wins",
              "type": "uint16"
            },
            {
              "internalType": "uint16",
              "name": "losses",
              "type": "uint16"
            },
            {
              "internalType": "uint16",
              "name": "points",
              "type": "uint16"
            }
          ],
          "internalType": "struct BenderBase.Bender[]",
          "name": "",
          "type": "tuple[]"
        }
      ],
      "stateMutability": "view",
      "type": "function"
    },
    {
      "inputs": [
        {
          "internalType": "string",
          "name": "_name",
          "type": "string"
        },
        {
          "internalType": "string",
          "name": "_element",
          "type": "string"
        }
      ],
      "name": "mintBender",
      "outputs": [],
      "stateMutability": "nonpayable",
      "type": "function"
    },
    {
      "inputs": [],
      "name": "owner",
      "outputs": [
        {
          "internalType": "address",
          "name": "",
          "type": "address"
        }
      ],
      "stateMutability": "view",
      "type": "function"
    },
    {
      "inputs": [],
      "name": "renounceOwnership",
      "outputs": [],
      "stateMutability": "nonpayable",
      "type": "function"
    },
    {
      "inputs": [
        {
          "internalType": "address",
          "name": "newOwner",
          "type": "address"
        }
      ],
      "name": "transferOwnership",
      "outputs": [],
      "stateMutability": "nonpayable",
      "type": "function"
    }
  ],
  "bytecode": "0x6080604052603c60025534801561001557600080fd5b5061003261002761003760201b60201c565b61003f60201b60201c565b610103565b600033905090565b60008060009054906101000a900473ffffffffffffffffffffffffffffffffffffffff169050816000806101000a81548173ffffffffffffffffffffffffffffffffffffffff021916908373ffffffffffffffffffffffffffffffffffffffff1602179055508173ffffffffffffffffffffffffffffffffffffffff168173ffffffffffffffffffffffffffffffffffffffff167f8be0079c531659141344cd1fd0a4f28419497f9722a3daafe3b4186f6b6457e060405160405180910390a35050565b611ced806101126000396000f3fe608060405234801561001057600080fd5b50600436106100885760003560e01c8063d120d7d31161005b578063d120d7d314610103578063d2c412ee1461011f578063d46bc7da1461015a578063f2fde38b1461017657610088565b80632a6225e41461008d5780636fc082cc146100bd578063715018a6146100db5780638da5cb5b146100e5575b600080fd5b6100a760048036038101906100a2919061138c565b610192565b6040516100b491906117b4565b60405180910390f35b6100c56101c5565b6040516100d291906117cf565b60405180910390f35b6100e3610609565b005b6100ed610691565b6040516100fa91906117b4565b60405180910390f35b61011d60048036038101906101189190611320565b6106ba565b005b6101396004803603810190610134919061138c565b61074a565b6040516101519c9b9a99989796959493929190611851565b60405180910390f35b610174600480360381019061016f9190611320565b610aea565b005b610190600480360381019061018b91906112f7565b610b74565b005b60046020528060005260406000206000915054906101000a900473ffffffffffffffffffffffffffffffffffffffff1681565b60606003805480602002602001604051908101604052809291908181526020016000905b8282101561060057838290600052602060002090600b02016040518061018001604052908160008201548152602001600182015481526020016002820154815260200160038201805461023b90611a78565b80601f016020809104026020016040519081016040528092919081815260200182805461026790611a78565b80156102b45780601f10610289576101008083540402835291602001916102b4565b820191906000526020600020905b81548152906001019060200180831161029757829003601f168201915b505050505081526020016004820160009054906101000a900463ffffffff1663ffffffff1663ffffffff1681526020016004820160049054906101000a900463ffffffff1663ffffffff1663ffffffff1681526020016004820160089054906101000a900463ffffffff1663ffffffff1663ffffffff16815260200160058201805461033f90611a78565b80601f016020809104026020016040519081016040528092919081815260200182805461036b90611a78565b80156103b85780601f1061038d576101008083540402835291602001916103b8565b820191906000526020600020905b81548152906001019060200180831161039b57829003601f168201915b50505050508152602001600682016040518060c00160405290816000820160009054906101000a900463ffffffff1663ffffffff1663ffffffff1681526020016000820160049054906101000a900463ffffffff1663ffffffff1663ffffffff1681526020016000820160089054906101000a900463ffffffff1663ffffffff1663ffffffff16815260200160018201805461045390611a78565b80601f016020809104026020016040519081016040528092919081815260200182805461047f90611a78565b80156104cc5780601f106104a1576101008083540402835291602001916104cc565b820191906000526020600020905b8154815290600101906020018083116104af57829003601f168201915b505050505081526020016002820180546104e590611a78565b80601f016020809104026020016040519081016040528092919081815260200182805461051190611a78565b801561055e5780601f106105335761010080835404028352916020019161055e565b820191906000526020600020905b81548152906001019060200180831161054157829003601f168201915b505050505081526020016003820160009054906101000a900463ffffffff1663ffffffff1663ffffffff16815250508152602001600a820160009054906101000a900461ffff1661ffff1661ffff168152602001600a820160029054906101000a900461ffff1661ffff1661ffff168152602001600a820160049054906101000a900461ffff1661ffff1661ffff1681525050815260200190600101906101e9565b50505050905090565b610611610c6c565b73ffffffffffffffffffffffffffffffffffffffff1661062f610691565b73ffffffffffffffffffffffffffffffffffffffff1614610685576040517f08c379a000000000000000000000000000000000000000000000000000000000815260040161067c90611811565b60405180910390fd5b61068f6000610c74565b565b60008060009054906101000a900473ffffffffffffffffffffffffffffffffffffffff16905090565b6000600560003373ffffffffffffffffffffffffffffffffffffffff1673ffffffffffffffffffffffffffffffffffffffff168152602001908152602001600020541461073c576040517f08c379a000000000000000000000000000000000000000000000000000000000815260040161073390611831565b60405180910390fd5b6107468282610d38565b5050565b6003818154811061075a57600080fd5b90600052602060002090600b020160009150905080600001549080600101549080600201549080600301805461078f90611a78565b80601f01602080910402602001604051908101604052809291908181526020018280546107bb90611a78565b80156108085780601f106107dd57610100808354040283529160200191610808565b820191906000526020600020905b8154815290600101906020018083116107eb57829003601f168201915b5050505050908060040160009054906101000a900463ffffffff16908060040160049054906101000a900463ffffffff16908060040160089054906101000a900463ffffffff169080600501805461085f90611a78565b80601f016020809104026020016040519081016040528092919081815260200182805461088b90611a78565b80156108d85780601f106108ad576101008083540402835291602001916108d8565b820191906000526020600020905b8154815290600101906020018083116108bb57829003601f168201915b505050505090806006016040518060c00160405290816000820160009054906101000a900463ffffffff1663ffffffff1663ffffffff1681526020016000820160049054906101000a900463ffffffff1663ffffffff1663ffffffff1681526020016000820160089054906101000a900463ffffffff1663ffffffff1663ffffffff16815260200160018201805461096f90611a78565b80601f016020809104026020016040519081016040528092919081815260200182805461099b90611a78565b80156109e85780601f106109bd576101008083540402835291602001916109e8565b820191906000526020600020905b8154815290600101906020018083116109cb57829003601f168201915b50505050508152602001600282018054610a0190611a78565b80601f0160208091040260200160405190810160405280929190818152602001828054610a2d90611a78565b8015610a7a5780601f10610a4f57610100808354040283529160200191610a7a565b820191906000526020600020905b815481529060010190602001808311610a5d57829003601f168201915b505050505081526020016003820160009054906101000a900463ffffffff1663ffffffff1663ffffffff16815250509080600a0160009054906101000a900461ffff169080600a0160029054906101000a900461ffff169080600a0160049054906101000a900461ffff1690508c565b610af2610c6c565b73ffffffffffffffffffffffffffffffffffffffff16610b10610691565b73ffffffffffffffffffffffffffffffffffffffff1614610b66576040517f08c379a0000000000000000000000000000000000000000000000000000000008152600401610b5d90611811565b60405180910390fd5b610b708282610d38565b5050565b610b7c610c6c565b73ffffffffffffffffffffffffffffffffffffffff16610b9a610691565b73ffffffffffffffffffffffffffffffffffffffff1614610bf0576040517f08c379a0000000000000000000000000000000000000000000000000000000008152600401610be790611811565b60405180910390fd5b600073ffffffffffffffffffffffffffffffffffffffff168173ffffffffffffffffffffffffffffffffffffffff161415610c60576040517f08c379a0000000000000000000000000000000000000000000000000000000008152600401610c57906117f1565b60405180910390fd5b610c6981610c74565b50565b600033905090565b60008060009054906101000a900473ffffffffffffffffffffffffffffffffffffffff169050816000806101000a81548173ffffffffffffffffffffffffffffffffffffffff021916908373ffffffffffffffffffffffffffffffffffffffff1602179055508173ffffffffffffffffffffffffffffffffffffffff168173ffffffffffffffffffffffffffffffffffffffff167f8be0079c531659141344cd1fd0a4f28419497f9722a3daafe3b4186f6b6457e060405160405180910390a35050565b6000610d4460016110c3565b905060036040518061018001604052808381526020016064815260200160008152602001858152602001606463ffffffff168152602001600163ffffffff1681526020014263ffffffff168152602001848152602001610da3856110d1565b8152602001600061ffff168152602001600061ffff168152602001600061ffff1681525090806001815401808255809150506001900390600052602060002090600b02016000909190919091506000820151816000015560208201518160010155604082015181600201556060820151816003019080519060200190610e2a929190611174565b5060808201518160040160006101000a81548163ffffffff021916908363ffffffff16021790555060a08201518160040160046101000a81548163ffffffff021916908363ffffffff16021790555060c08201518160040160086101000a81548163ffffffff021916908363ffffffff16021790555060e0820151816005019080519060200190610ebc929190611174565b506101008201518160060160008201518160000160006101000a81548163ffffffff021916908363ffffffff16021790555060208201518160000160046101000a81548163ffffffff021916908363ffffffff16021790555060408201518160000160086101000a81548163ffffffff021916908363ffffffff1602179055506060820151816001019080519060200190610f58929190611174565b506080820151816002019080519060200190610f75929190611174565b5060a08201518160030160006101000a81548163ffffffff021916908363ffffffff160217905550505061012082015181600a0160006101000a81548161ffff021916908361ffff16021790555061014082015181600a0160026101000a81548161ffff021916908361ffff16021790555061016082015181600a0160046101000a81548161ffff021916908361ffff1602179055505050336004600083815260200190815260200160002060006101000a81548173ffffffffffffffffffffffffffffffffffffffff021916908373ffffffffffffffffffffffffffffffffffffffff160217905550600560003373ffffffffffffffffffffffffffffffffffffffff1673ffffffffffffffffffffffffffffffffffffffff16815260200190815260200160002060008154809291906110af90611adb565b91905055506110be600161115e565b505050565b600081600001549050919050565b6110d96111fa565b6040518060c00160405280600563ffffffff168152602001600163ffffffff168152602001600163ffffffff1681526020016040518060400160405280600a81526020017f41747461636b206f6620000000000000000000000000000000000000000000008152508152602001838152602001600163ffffffff168152509050919050565b6001816000016000828254019250508190555050565b82805461118090611a78565b90600052602060002090601f0160209004810192826111a257600085556111e9565b82601f106111bb57805160ff19168380011785556111e9565b828001600101855582156111e9579182015b828111156111e85782518255916020019190600101906111cd565b5b5090506111f69190611248565b5090565b6040518060c00160405280600063ffffffff168152602001600063ffffffff168152602001600063ffffffff1681526020016060815260200160608152602001600063ffffffff1681525090565b5b80821115611261576000816000905550600101611249565b5090565b600061127861127384611945565b611920565b90508281526020810184848401111561129057600080fd5b61129b848285611a36565b509392505050565b6000813590506112b281611c89565b92915050565b600082601f8301126112c957600080fd5b81356112d9848260208601611265565b91505092915050565b6000813590506112f181611ca0565b92915050565b60006020828403121561130957600080fd5b6000611317848285016112a3565b91505092915050565b6000806040838503121561133357600080fd5b600083013567ffffffffffffffff81111561134d57600080fd5b611359858286016112b8565b925050602083013567ffffffffffffffff81111561137657600080fd5b611382858286016112b8565b9150509250929050565b60006020828403121561139e57600080fd5b60006113ac848285016112e2565b91505092915050565b60006113c18383611648565b905092915050565b6113d2816119dc565b82525050565b60006113e382611986565b6113ed81856119a9565b9350836020820285016113ff85611976565b8060005b8581101561143b578484038952815161141c85826113b5565b94506114278361199c565b925060208a01995050600181019050611403565b50829750879550505050505092915050565b600061145882611991565b61146281856119ba565b9350611472818560208601611a45565b61147b81611bb1565b840191505092915050565b600061149182611991565b61149b81856119cb565b93506114ab818560208601611a45565b6114b481611bb1565b840191505092915050565b60006114cc6026836119cb565b91506114d782611bc2565b604082019050919050565b60006114ef6020836119cb565b91506114fa82611c11565b602082019050919050565b60006115126023836119cb565b915061151d82611c3a565b604082019050919050565b600060c0830160008301516115406000860182611796565b5060208301516115536020860182611796565b5060408301516115666040860182611796565b506060830151848203606086015261157e828261144d565b91505060808301518482036080860152611598828261144d565b91505060a08301516115ad60a0860182611796565b508091505092915050565b600060c0830160008301516115d06000860182611796565b5060208301516115e36020860182611796565b5060408301516115f66040860182611796565b506060830151848203606086015261160e828261144d565b91505060808301518482036080860152611628828261144d565b91505060a083015161163d60a0860182611796565b508091505092915050565b6000610180830160008301516116616000860182611778565b5060208301516116746020860182611778565b5060408301516116876040860182611778565b506060830151848203606086015261169f828261144d565b91505060808301516116b46080860182611796565b5060a08301516116c760a0860182611796565b5060c08301516116da60c0860182611796565b5060e083015184820360e08601526116f2828261144d565b91505061010083015184820361010086015261170e8282611528565b91505061012083015161172561012086018261175a565b5061014083015161173a61014086018261175a565b5061016083015161174f61016086018261175a565b508091505092915050565b611763816119ee565b82525050565b611772816119ee565b82525050565b61178181611a1c565b82525050565b61179081611a1c565b82525050565b61179f81611a26565b82525050565b6117ae81611a26565b82525050565b60006020820190506117c960008301846113c9565b92915050565b600060208201905081810360008301526117e981846113d8565b905092915050565b6000602082019050818103600083015261180a816114bf565b9050919050565b6000602082019050818103600083015261182a816114e2565b9050919050565b6000602082019050818103600083015261184a81611505565b9050919050565b600061018082019050611867600083018f611787565b611874602083018e611787565b611881604083018d611787565b8181036060830152611893818c611486565b90506118a2608083018b6117a5565b6118af60a083018a6117a5565b6118bc60c08301896117a5565b81810360e08301526118ce8188611486565b90508181036101008301526118e381876115b8565b90506118f3610120830186611769565b611901610140830185611769565b61190f610160830184611769565b9d9c50505050505050505050505050565b600061192a61193b565b90506119368282611aaa565b919050565b6000604051905090565b600067ffffffffffffffff8211156119605761195f611b82565b5b61196982611bb1565b9050602081019050919050565b6000819050602082019050919050565b600081519050919050565b600081519050919050565b6000602082019050919050565b600082825260208201905092915050565b600082825260208201905092915050565b600082825260208201905092915050565b60006119e7826119fc565b9050919050565b600061ffff82169050919050565b600073ffffffffffffffffffffffffffffffffffffffff82169050919050565b6000819050919050565b600063ffffffff82169050919050565b82818337600083830152505050565b60005b83811015611a63578082015181840152602081019050611a48565b83811115611a72576000848401525b50505050565b60006002820490506001821680611a9057607f821691505b60208210811415611aa457611aa3611b53565b5b50919050565b611ab382611bb1565b810181811067ffffffffffffffff82111715611ad257611ad1611b82565b5b80604052505050565b6000611ae682611a1c565b91507fffffffffffffffffffffffffffffffffffffffffffffffffffffffffffffffff821415611b1957611b18611b24565b5b600182019050919050565b7f4e487b7100000000000000000000000000000000000000000000000000000000600052601160045260246000fd5b7f4e487b7100000000000000000000000000000000000000000000000000000000600052602260045260246000fd5b7f4e487b7100000000000000000000000000000000000000000000000000000000600052604160045260246000fd5b6000601f19601f8301169050919050565b7f4f776e61626c653a206e6577206f776e657220697320746865207a65726f206160008201527f6464726573730000000000000000000000000000000000000000000000000000602082015250565b7f4f776e61626c653a2063616c6c6572206973206e6f7420746865206f776e6572600082015250565b7f596f752063616e277420637265617465206d6f7265207468616e20312062656e60008201527f6465720000000000000000000000000000000000000000000000000000000000602082015250565b611c92816119dc565b8114611c9d57600080fd5b50565b611ca981611a1c565b8114611cb457600080fd5b5056fea2646970667358221220d33982ce417dd0a7e2d2943749f36feb3439c391d202490f5b097332251a4ee164736f6c63430008040033",
  "linkReferences": {},
  "deployedLinkReferences": {}
}