{
  "_format": "hh-sol-artifact-1",
  "contractName": "BenderOwnership",
  "sourceName": "contracts/BenderOwnership.sol",
  "abi": [
    {
      "anonymous": false,
      "inputs": [
        {
          "indexed": true,
          "internalType": "address",
          "name": "_owner",
          "type": "address"
        },
        {
          "indexed": true,
          "internalType": "address",
          "name": "_approved",
          "type": "address"
        },
        {
          "indexed": true,
          "internalType": "uint256",
          "name": "_tokenId",
          "type": "uint256"
        }
      ],
      "name": "Approval",
      "type": "event"
    },
    {
      "anonymous": false,
      "inputs": [
        {
          "indexed": false,
          "internalType": "string",
          "name": "benderName",
          "type": "string"
        },
        {
          "indexed": false,
          "internalType": "uint256",
          "name": "damage",
          "type": "uint256"
        },
        {
          "indexed": false,
          "internalType": "string",
          "name": "message",
          "type": "string"
        }
      ],
      "name": "AttackAction",
      "type": "event"
    },
    {
      "anonymous": false,
      "inputs": [
        {
          "indexed": false,
          "internalType": "uint256",
          "name": "damage",
          "type": "uint256"
        },
        {
          "indexed": false,
          "internalType": "uint256",
          "name": "damageReceived",
          "type": "uint256"
        },
        {
          "indexed": false,
          "internalType": "string",
          "name": "winner",
          "type": "string"
        }
      ],
      "name": "FightResult",
      "type": "event"
    },
    {
      "anonymous": false,
      "inputs": [
        {
          "indexed": true,
          "internalType": "address",
          "name": "previousOwner",
          "type": "address"
        },
        {
          "indexed": true,
          "internalType": "address",
          "name": "newOwner",
          "type": "address"
        }
      ],
      "name": "OwnershipTransferred",
      "type": "event"
    },
    {
      "anonymous": false,
      "inputs": [
        {
          "indexed": true,
          "internalType": "address",
          "name": "_from",
          "type": "address"
        },
        {
          "indexed": true,
          "internalType": "address",
          "name": "_to",
          "type": "address"
        },
        {
          "indexed": true,
          "internalType": "uint256",
          "name": "_tokenId",
          "type": "uint256"
        }
      ],
      "name": "Transfer",
      "type": "event"
    },
    {
      "inputs": [
        {
          "internalType": "address",
          "name": "_approved",
          "type": "address"
        },
        {
          "internalType": "uint256",
          "name": "_tokenId",
          "type": "uint256"
        }
      ],
      "name": "approve",
      "outputs": [],
      "stateMutability": "payable",
      "type": "function"
    },
    {
      "inputs": [
        {
          "internalType": "address",
          "name": "_owner",
          "type": "address"
        }
      ],
      "name": "balanceOf",
      "outputs": [
        {
          "internalType": "uint256",
          "name": "",
          "type": "uint256"
        }
      ],
      "stateMutability": "view",
      "type": "function"
    },
    {
      "inputs": [
        {
          "internalType": "uint256",
          "name": "",
          "type": "uint256"
        }
      ],
      "name": "benderToOwner",
      "outputs": [
        {
          "internalType": "address",
          "name": "",
          "type": "address"
        }
      ],
      "stateMutability": "view",
      "type": "function"
    },
    {
      "inputs": [
        {
          "internalType": "uint256",
          "name": "",
          "type": "uint256"
        }
      ],
      "name": "benders",
      "outputs": [
        {
          "internalType": "uint256",
          "name": "tokenId",
          "type": "uint256"
        },
        {
          "internalType": "uint256",
          "name": "health",
          "type": "uint256"
        },
        {
          "internalType": "uint256",
          "name": "experience",
          "type": "uint256"
        },
        {
          "internalType": "string",
          "name": "name",
          "type": "string"
        },
        {
          "internalType": "uint32",
          "name": "chi",
          "type": "uint32"
        },
        {
          "internalType": "uint32",
          "name": "level",
          "type": "uint32"
        },
        {
          "internalType": "uint32",
          "name": "readyAt",
          "type": "uint32"
        },
        {
          "internalType": "string",
          "name": "element",
          "type": "string"
        },
        {
          "components": [
            {
              "internalType": "uint32",
              "name": "maxDamage",
              "type": "uint32"
            },
            {
              "internalType": "uint32",
              "name": "minDamage",
              "type": "uint32"
            },
            {
              "internalType": "uint32",
              "name": "precision",
              "type": "uint32"
            },
            {
              "internalType": "string",
              "name": "name",
              "type": "string"
            },
            {
              "internalType": "string",
              "name": "element",
              "type": "string"
            },
            {
              "internalType": "uint32",
              "name": "cost",
              "type": "uint32"
            }
          ],
          "internalType": "struct BenderBase.Attack",
          "name": "attack",
          "type": "tuple"
        },
        {
          "internalType": "uint16",
          "name": "wins",
          "type": "uint16"
        },
        {
          "internalType": "uint16",
          "name": "losses",
          "type": "uint16"
        },
        {
          "internalType": "uint16",
          "name": "points",
          "type": "uint16"
        }
      ],
      "stateMutability": "view",
      "type": "function"
    },
    {
      "inputs": [
        {
          "internalType": "string",
          "name": "_name",
          "type": "string"
        },
        {
          "internalType": "string",
          "name": "_element",
          "type": "string"
        }
      ],
      "name": "createRandomBender",
      "outputs": [],
      "stateMutability": "nonpayable",
      "type": "function"
    },
    {
      "inputs": [
        {
          "internalType": "uint256",
          "name": "_benderId",
          "type": "uint256"
        },
        {
          "internalType": "uint256",
          "name": "_targetId",
          "type": "uint256"
        }
      ],
      "name": "fight",
      "outputs": [],
      "stateMutability": "nonpayable",
      "type": "function"
    },
    {
      "inputs": [],
      "name": "getBenders",
      "outputs": [
        {
          "components": [
            {
              "internalType": "uint256",
              "name": "tokenId",
              "type": "uint256"
            },
            {
              "internalType": "uint256",
              "name": "health",
              "type": "uint256"
            },
            {
              "internalType": "uint256",
              "name": "experience",
              "type": "uint256"
            },
            {
              "internalType": "string",
              "name": "name",
              "type": "string"
            },
            {
              "internalType": "uint32",
              "name": "chi",
              "type": "uint32"
            },
            {
              "internalType": "uint32",
              "name": "level",
              "type": "uint32"
            },
            {
              "internalType": "uint32",
              "name": "readyAt",
              "type": "uint32"
            },
            {
              "internalType": "string",
              "name": "element",
              "type": "string"
            },
            {
              "components": [
                {
                  "internalType": "uint32",
                  "name": "maxDamage",
                  "type": "uint32"
                },
                {
                  "internalType": "uint32",
                  "name": "minDamage",
                  "type": "uint32"
                },
                {
                  "internalType": "uint32",
                  "name": "precision",
                  "type": "uint32"
                },
                {
                  "internalType": "string",
                  "name": "name",
                  "type": "string"
                },
                {
                  "internalType": "string",
                  "name": "element",
                  "type": "string"
                },
                {
                  "internalType": "uint32",
                  "name": "cost",
                  "type": "uint32"
                }
              ],
              "internalType": "struct BenderBase.Attack",
              "name": "attack",
              "type": "tuple"
            },
            {
              "internalType": "uint16",
              "name": "wins",
              "type": "uint16"
            },
            {
              "internalType": "uint16",
              "name": "losses",
              "type": "uint16"
            },
            {
              "internalType": "uint16",
              "name": "points",
              "type": "uint16"
            }
          ],
          "internalType": "struct BenderBase.Bender[]",
          "name": "",
          "type": "tuple[]"
        }
      ],
      "stateMutability": "view",
      "type": "function"
    },
    {
      "inputs": [
        {
          "internalType": "address",
          "name": "_owner",
          "type": "address"
        }
      ],
      "name": "getBendersByOwner",
      "outputs": [
        {
          "internalType": "uint256[]",
          "name": "",
          "type": "uint256[]"
        }
      ],
      "stateMutability": "view",
      "type": "function"
    },
    {
      "inputs": [
        {
          "internalType": "uint256",
          "name": "_benderId",
          "type": "uint256"
        }
      ],
      "name": "levelUp",
      "outputs": [],
      "stateMutability": "payable",
      "type": "function"
    },
    {
      "inputs": [
        {
          "internalType": "string",
          "name": "_name",
          "type": "string"
        },
        {
          "internalType": "string",
          "name": "_element",
          "type": "string"
        }
      ],
      "name": "mintBender",
      "outputs": [],
      "stateMutability": "nonpayable",
      "type": "function"
    },
    {
      "inputs": [],
      "name": "owner",
      "outputs": [
        {
          "internalType": "address",
          "name": "",
          "type": "address"
        }
      ],
      "stateMutability": "view",
      "type": "function"
    },
    {
      "inputs": [
        {
          "internalType": "uint256",
          "name": "_tokenId",
          "type": "uint256"
        }
      ],
      "name": "ownerOf",
      "outputs": [
        {
          "internalType": "address",
          "name": "",
          "type": "address"
        }
      ],
      "stateMutability": "view",
      "type": "function"
    },
    {
      "inputs": [],
      "name": "renounceOwnership",
      "outputs": [],
      "stateMutability": "nonpayable",
      "type": "function"
    },
    {
      "inputs": [
        {
          "internalType": "uint256",
          "name": "_fee",
          "type": "uint256"
        }
      ],
      "name": "setLevelUpFee",
      "outputs": [],
      "stateMutability": "nonpayable",
      "type": "function"
    },
    {
      "inputs": [
        {
          "internalType": "address",
          "name": "_from",
          "type": "address"
        },
        {
          "internalType": "address",
          "name": "_to",
          "type": "address"
        },
        {
          "internalType": "uint256",
          "name": "_tokenId",
          "type": "uint256"
        }
      ],
      "name": "transferFrom",
      "outputs": [],
      "stateMutability": "payable",
      "type": "function"
    },
    {
      "inputs": [
        {
          "internalType": "address",
          "name": "newOwner",
          "type": "address"
        }
      ],
      "name": "transferOwnership",
      "outputs": [],
      "stateMutability": "nonpayable",
      "type": "function"
    }
  ],
  "bytecode": "0x6080604052603c60025566038d7ea4c68000600655600060075560056008553480156200002b57600080fd5b506200004c620000406200005260201b60201c565b6200005a60201b60201c565b6200011e565b600033905090565b60008060009054906101000a900473ffffffffffffffffffffffffffffffffffffffff169050816000806101000a81548173ffffffffffffffffffffffffffffffffffffffff021916908373ffffffffffffffffffffffffffffffffffffffff1602179055508173ffffffffffffffffffffffffffffffffffffffff168173ffffffffffffffffffffffffffffffffffffffff167f8be0079c531659141344cd1fd0a4f28419497f9722a3daafe3b4186f6b6457e060405160405180910390a35050565b6132e7806200012e6000396000f3fe6080604052600436106100f35760003560e01c8063715018a61161008a578063d120d7d311610059578063d120d7d3146102ff578063d2c412ee14610328578063d46bc7da14610370578063f2fde38b14610399576100f3565b8063715018a61461026b5780638da5cb5b14610282578063ca39e5ef146102ad578063ccf670f8146102d6576100f3565b80632a6225e4116100c65780632a6225e4146101895780636352211e146101c65780636fc082cc1461020357806370a082311461022e576100f3565b8063095ea7b3146100f85780630ce90ec21461011457806311132ace1461013057806323b872dd1461016d575b600080fd5b610112600480360381019061010d919061235a565b6103c2565b005b61012e60048036038101906101299190612402565b6104e0565b005b34801561013c57600080fd5b50610157600480360381019061015291906122e2565b61057b565b6040516101649190612a27565b60405180910390f35b6101876004803603810190610182919061230b565b61071a565b005b34801561019557600080fd5b506101b060048036038101906101ab9190612402565b6107fe565b6040516101bd91906129ea565b60405180910390f35b3480156101d257600080fd5b506101ed60048036038101906101e89190612402565b610831565b6040516101fa91906129ea565b60405180910390f35b34801561020f57600080fd5b5061021861086e565b6040516102259190612a05565b60405180910390f35b34801561023a57600080fd5b50610255600480360381019061025091906122e2565b610cb2565b6040516102629190612b0e565b60405180910390f35b34801561027757600080fd5b50610280610cfb565b005b34801561028e57600080fd5b50610297610d83565b6040516102a491906129ea565b60405180910390f35b3480156102b957600080fd5b506102d460048036038101906102cf919061242b565b610dac565b005b3480156102e257600080fd5b506102fd60048036038101906102f89190612402565b6112fb565b005b34801561030b57600080fd5b5061032660048036038101906103219190612396565b611381565b005b34801561033457600080fd5b5061034f600480360381019061034a9190612402565b611411565b6040516103679c9b9a99989796959493929190612b67565b60405180910390f35b34801561037c57600080fd5b5061039760048036038101906103929190612396565b6117b1565b005b3480156103a557600080fd5b506103c060048036038101906103bb91906122e2565b61183b565b005b806004600082815260200190815260200160002060009054906101000a900473ffffffffffffffffffffffffffffffffffffffff1673ffffffffffffffffffffffffffffffffffffffff163373ffffffffffffffffffffffffffffffffffffffff161461042e57600080fd5b826009600084815260200190815260200160002060006101000a81548173ffffffffffffffffffffffffffffffffffffffff021916908373ffffffffffffffffffffffffffffffffffffffff160217905550818373ffffffffffffffffffffffffffffffffffffffff163373ffffffffffffffffffffffffffffffffffffffff167f8c5be1e5ebec7d5bd14f71427d1e84f3dd0314c0f7b2291e5b200ac8c7c3b92560405160405180910390a4505050565b60065434146104ee57600080fd5b60038181548110610528577f4e487b7100000000000000000000000000000000000000000000000000000000600052603260045260246000fd5b90600052602060002090600b0201600401600481819054906101000a900463ffffffff16809291906105599061302d565b91906101000a81548163ffffffff021916908363ffffffff1602179055505050565b60606000600560008473ffffffffffffffffffffffffffffffffffffffff1673ffffffffffffffffffffffffffffffffffffffff1681526020019081526020016000205467ffffffffffffffff8111156105fe577f4e487b7100000000000000000000000000000000000000000000000000000000600052604160045260246000fd5b60405190808252806020026020018201604052801561062c5781602001602082028036833780820191505090505b5090506000805b60038054905081101561070f578473ffffffffffffffffffffffffffffffffffffffff166004600083815260200190815260200160002060009054906101000a900473ffffffffffffffffffffffffffffffffffffffff1673ffffffffffffffffffffffffffffffffffffffff1614156106fc57808383815181106106e1577f4e487b7100000000000000000000000000000000000000000000000000000000600052603260045260246000fd5b60200260200101818152505081806106f890612fe4565b9250505b808061070790612fe4565b915050610633565b508192505050919050565b3373ffffffffffffffffffffffffffffffffffffffff166009600083815260200190815260200160002060009054906101000a900473ffffffffffffffffffffffffffffffffffffffff1673ffffffffffffffffffffffffffffffffffffffff1614806107e557503373ffffffffffffffffffffffffffffffffffffffff166009600083815260200190815260200160002060009054906101000a900473ffffffffffffffffffffffffffffffffffffffff1673ffffffffffffffffffffffffffffffffffffffff16145b6107ee57600080fd5b6107f9838383611933565b505050565b60046020528060005260406000206000915054906101000a900473ffffffffffffffffffffffffffffffffffffffff1681565b60006004600083815260200190815260200160002060009054906101000a900473ffffffffffffffffffffffffffffffffffffffff169050919050565b60606003805480602002602001604051908101604052809291908181526020016000905b82821015610ca957838290600052602060002090600b0201604051806101800160405290816000820154815260200160018201548152602001600282015481526020016003820180546108e490612f56565b80601f016020809104026020016040519081016040528092919081815260200182805461091090612f56565b801561095d5780601f106109325761010080835404028352916020019161095d565b820191906000526020600020905b81548152906001019060200180831161094057829003601f168201915b505050505081526020016004820160009054906101000a900463ffffffff1663ffffffff1663ffffffff1681526020016004820160049054906101000a900463ffffffff1663ffffffff1663ffffffff1681526020016004820160089054906101000a900463ffffffff1663ffffffff1663ffffffff1681526020016005820180546109e890612f56565b80601f0160208091040260200160405190810160405280929190818152602001828054610a1490612f56565b8015610a615780601f10610a3657610100808354040283529160200191610a61565b820191906000526020600020905b815481529060010190602001808311610a4457829003601f168201915b50505050508152602001600682016040518060c00160405290816000820160009054906101000a900463ffffffff1663ffffffff1663ffffffff1681526020016000820160049054906101000a900463ffffffff1663ffffffff1663ffffffff1681526020016000820160089054906101000a900463ffffffff1663ffffffff1663ffffffff168152602001600182018054610afc90612f56565b80601f0160208091040260200160405190810160405280929190818152602001828054610b2890612f56565b8015610b755780601f10610b4a57610100808354040283529160200191610b75565b820191906000526020600020905b815481529060010190602001808311610b5857829003601f168201915b50505050508152602001600282018054610b8e90612f56565b80601f0160208091040260200160405190810160405280929190818152602001828054610bba90612f56565b8015610c075780601f10610bdc57610100808354040283529160200191610c07565b820191906000526020600020905b815481529060010190602001808311610bea57829003601f168201915b505050505081526020016003820160009054906101000a900463ffffffff1663ffffffff1663ffffffff16815250508152602001600a820160009054906101000a900461ffff1661ffff1661ffff168152602001600a820160029054906101000a900461ffff1661ffff1661ffff168152602001600a820160049054906101000a900461ffff1661ffff1661ffff168152505081526020019060010190610892565b50505050905090565b6000600560008373ffffffffffffffffffffffffffffffffffffffff1673ffffffffffffffffffffffffffffffffffffffff168152602001908152602001600020549050919050565b610d03611a8f565b73ffffffffffffffffffffffffffffffffffffffff16610d21610d83565b73ffffffffffffffffffffffffffffffffffffffff1614610d77576040517f08c379a0000000000000000000000000000000000000000000000000000000008152600401610d6e90612ace565b60405180910390fd5b610d816000611a97565b565b60008060009054906101000a900473ffffffffffffffffffffffffffffffffffffffff16905090565b816004600082815260200190815260200160002060009054906101000a900473ffffffffffffffffffffffffffffffffffffffff1673ffffffffffffffffffffffffffffffffffffffff163373ffffffffffffffffffffffffffffffffffffffff1614610e1857600080fd5b600060038481548110610e54577f4e487b7100000000000000000000000000000000000000000000000000000000600052603260045260246000fd5b90600052602060002090600b02019050600060038481548110610ea0577f4e487b7100000000000000000000000000000000000000000000000000000000600052603260045260246000fd5b90600052602060002090600b02019050610eb982611b5b565b610ef8576040517f08c379a0000000000000000000000000000000000000000000000000000000008152600401610eef90612aae565b60405180910390fd5b6000610f048383611b82565b90506000610f128385611b82565b90506060818311156110aa5784600401600481819054906101000a900463ffffffff1680929190610f429061302d565b91906101000a81548163ffffffff021916908363ffffffff1602179055505084600a01600081819054906101000a900461ffff1680929190610f8390612fb9565b91906101000a81548161ffff021916908361ffff160217905550508285600a0160048282829054906101000a900461ffff16610fbf9190612d40565b92506101000a81548161ffff021916908361ffff16021790555083600a01600281819054906101000a900461ffff1680929190610ffb90612fb9565b91906101000a81548161ffff021916908361ffff1602179055505084600301805461102590612f56565b80601f016020809104026020016040519081016040528092919081815260200182805461105190612f56565b801561109e5780601f106110735761010080835404028352916020019161109e565b820191906000526020600020905b81548152906001019060200180831161108157829003601f168201915b505050505090506111ef565b8360030180546110b990612f56565b80601f01602080910402602001604051908101604052809291908181526020018280546110e590612f56565b80156111325780601f1061110757610100808354040283529160200191611132565b820191906000526020600020905b81548152906001019060200180831161111557829003601f168201915b5050505050905084600a01600281819054906101000a900461ffff168092919061115b90612fb9565b91906101000a81548161ffff021916908361ffff160217905550508184600a0160048282829054906101000a900461ffff166111979190612d40565b92506101000a81548161ffff021916908361ffff16021790555083600a01600081819054906101000a900461ffff16809291906111d390612fb9565b91906101000a81548161ffff021916908361ffff160217905550505b828560020160008282546112039190612d78565b925050819055508184600201600082825461121e9190612d78565b9250508190555061122e85611c94565b7f92591f233bfe90a892eaaefc4e4b1d40cb92f2a692280271d3aff8a248d5ed9385600301848760060160010160405161126a93929190612a49565b60405180910390a17f92591f233bfe90a892eaaefc4e4b1d40cb92f2a692280271d3aff8a248d5ed938460030183866006016001016040516112ae93929190612a49565b60405180910390a17f4d3f94cfb1aa6e003aef46c78c3b379cf3e7ba96d03e0cd2a5bd0b7edcc67a8e8383836040516112e993929190612b29565b60405180910390a15050505050505050565b611303611a8f565b73ffffffffffffffffffffffffffffffffffffffff16611321610d83565b73ffffffffffffffffffffffffffffffffffffffff1614611377576040517f08c379a000000000000000000000000000000000000000000000000000000000815260040161136e90612ace565b60405180910390fd5b8060068190555050565b6000600560003373ffffffffffffffffffffffffffffffffffffffff1673ffffffffffffffffffffffffffffffffffffffff1681526020019081526020016000205414611403576040517f08c379a00000000000000000000000000000000000000000000000000000000081526004016113fa90612aee565b60405180910390fd5b61140d8282611cc7565b5050565b6003818154811061142157600080fd5b90600052602060002090600b020160009150905080600001549080600101549080600201549080600301805461145690612f56565b80601f016020809104026020016040519081016040528092919081815260200182805461148290612f56565b80156114cf5780601f106114a4576101008083540402835291602001916114cf565b820191906000526020600020905b8154815290600101906020018083116114b257829003601f168201915b5050505050908060040160009054906101000a900463ffffffff16908060040160049054906101000a900463ffffffff16908060040160089054906101000a900463ffffffff169080600501805461152690612f56565b80601f016020809104026020016040519081016040528092919081815260200182805461155290612f56565b801561159f5780601f106115745761010080835404028352916020019161159f565b820191906000526020600020905b81548152906001019060200180831161158257829003601f168201915b505050505090806006016040518060c00160405290816000820160009054906101000a900463ffffffff1663ffffffff1663ffffffff1681526020016000820160049054906101000a900463ffffffff1663ffffffff1663ffffffff1681526020016000820160089054906101000a900463ffffffff1663ffffffff1663ffffffff16815260200160018201805461163690612f56565b80601f016020809104026020016040519081016040528092919081815260200182805461166290612f56565b80156116af5780601f10611684576101008083540402835291602001916116af565b820191906000526020600020905b81548152906001019060200180831161169257829003601f168201915b505050505081526020016002820180546116c890612f56565b80601f01602080910402602001604051908101604052809291908181526020018280546116f490612f56565b80156117415780601f1061171657610100808354040283529160200191611741565b820191906000526020600020905b81548152906001019060200180831161172457829003601f168201915b505050505081526020016003820160009054906101000a900463ffffffff1663ffffffff1663ffffffff16815250509080600a0160009054906101000a900461ffff169080600a0160029054906101000a900461ffff169080600a0160049054906101000a900461ffff1690508c565b6117b9611a8f565b73ffffffffffffffffffffffffffffffffffffffff166117d7610d83565b73ffffffffffffffffffffffffffffffffffffffff161461182d576040517f08c379a000000000000000000000000000000000000000000000000000000000815260040161182490612ace565b60405180910390fd5b6118378282611cc7565b5050565b611843611a8f565b73ffffffffffffffffffffffffffffffffffffffff16611861610d83565b73ffffffffffffffffffffffffffffffffffffffff16146118b7576040517f08c379a00000000000000000000000000000000000000000000000000000000081526004016118ae90612ace565b60405180910390fd5b600073ffffffffffffffffffffffffffffffffffffffff168173ffffffffffffffffffffffffffffffffffffffff161415611927576040517f08c379a000000000000000000000000000000000000000000000000000000000815260040161191e90612a8e565b60405180910390fd5b61193081611a97565b50565b600560008373ffffffffffffffffffffffffffffffffffffffff1673ffffffffffffffffffffffffffffffffffffffff168152602001908152602001600020600081548092919061198390612fe4565b9190505550600560008473ffffffffffffffffffffffffffffffffffffffff1673ffffffffffffffffffffffffffffffffffffffff16815260200190815260200160002060008154809291906119d890612f2c565b9190505550816004600083815260200190815260200160002060006101000a81548173ffffffffffffffffffffffffffffffffffffffff021916908373ffffffffffffffffffffffffffffffffffffffff160217905550808273ffffffffffffffffffffffffffffffffffffffff168473ffffffffffffffffffffffffffffffffffffffff167fddf252ad1be2c89b69c2b068fc378daa952ba7f163c4a11628f55a4df523b3ef60405160405180910390a4505050565b600033905090565b60008060009054906101000a900473ffffffffffffffffffffffffffffffffffffffff169050816000806101000a81548173ffffffffffffffffffffffffffffffffffffffff021916908373ffffffffffffffffffffffffffffffffffffffff1602179055508173ffffffffffffffffffffffffffffffffffffffff168173ffffffffffffffffffffffffffffffffffffffff167f8be0079c531659141344cd1fd0a4f28419497f9722a3daafe3b4186f6b6457e060405160405180910390a35050565b6000428260040160089054906101000a900463ffffffff1663ffffffff1611159050919050565b600080611bdd6008548560040160049054906101000a900463ffffffff1663ffffffff16611bb09190612dce565b8560060160000160009054906101000a900463ffffffff1663ffffffff16611bd89190612d78565b612052565b90508360060160030160009054906101000a900463ffffffff1663ffffffff16846001016000828254611c109190612e28565b925050819055508360060160030160009054906101000a900463ffffffff168460040160008282829054906101000a900463ffffffff16611c519190612e5c565b92506101000a81548163ffffffff021916908363ffffffff16021790555080836001016000828254611c839190612e28565b925050819055508091505092915050565b60025442611ca29190612d78565b8160040160086101000a81548163ffffffff021916908363ffffffff16021790555050565b6000611cd360016120ae565b905060036040518061018001604052808381526020016064815260200160008152602001858152602001606463ffffffff168152602001600163ffffffff1681526020014263ffffffff168152602001848152602001611d32856120bc565b8152602001600061ffff168152602001600061ffff168152602001600061ffff1681525090806001815401808255809150506001900390600052602060002090600b02016000909190919091506000820151816000015560208201518160010155604082015181600201556060820151816003019080519060200190611db992919061215f565b5060808201518160040160006101000a81548163ffffffff021916908363ffffffff16021790555060a08201518160040160046101000a81548163ffffffff021916908363ffffffff16021790555060c08201518160040160086101000a81548163ffffffff021916908363ffffffff16021790555060e0820151816005019080519060200190611e4b92919061215f565b506101008201518160060160008201518160000160006101000a81548163ffffffff021916908363ffffffff16021790555060208201518160000160046101000a81548163ffffffff021916908363ffffffff16021790555060408201518160000160086101000a81548163ffffffff021916908363ffffffff1602179055506060820151816001019080519060200190611ee792919061215f565b506080820151816002019080519060200190611f0492919061215f565b5060a08201518160030160006101000a81548163ffffffff021916908363ffffffff160217905550505061012082015181600a0160006101000a81548161ffff021916908361ffff16021790555061014082015181600a0160026101000a81548161ffff021916908361ffff16021790555061016082015181600a0160046101000a81548161ffff021916908361ffff1602179055505050336004600083815260200190815260200160002060006101000a81548173ffffffffffffffffffffffffffffffffffffffff021916908373ffffffffffffffffffffffffffffffffffffffff160217905550600560003373ffffffffffffffffffffffffffffffffffffffff1673ffffffffffffffffffffffffffffffffffffffff168152602001908152602001600020600081548092919061203e90612fe4565b919050555061204d6001612149565b505050565b60006007600081548092919061206790612fe4565b9190505550814233600754604051602001612084939291906129ad565b6040516020818303038152906040528051906020012060001c6120a79190613088565b9050919050565b600081600001549050919050565b6120c46121e5565b6040518060c00160405280600563ffffffff168152602001600163ffffffff168152602001600163ffffffff1681526020016040518060400160405280600a81526020017f41747461636b206f6620000000000000000000000000000000000000000000008152508152602001838152602001600163ffffffff168152509050919050565b6001816000016000828254019250508190555050565b82805461216b90612f56565b90600052602060002090601f01602090048101928261218d57600085556121d4565b82601f106121a657805160ff19168380011785556121d4565b828001600101855582156121d4579182015b828111156121d35782518255916020019190600101906121b8565b5b5090506121e19190612233565b5090565b6040518060c00160405280600063ffffffff168152602001600063ffffffff168152602001600063ffffffff1681526020016060815260200160608152602001600063ffffffff1681525090565b5b8082111561224c576000816000905550600101612234565b5090565b600061226361225e84612c5b565b612c36565b90508281526020810184848401111561227b57600080fd5b612286848285612eea565b509392505050565b60008135905061229d81613283565b92915050565b600082601f8301126122b457600080fd5b81356122c4848260208601612250565b91505092915050565b6000813590506122dc8161329a565b92915050565b6000602082840312156122f457600080fd5b60006123028482850161228e565b91505092915050565b60008060006060848603121561232057600080fd5b600061232e8682870161228e565b935050602061233f8682870161228e565b9250506040612350868287016122cd565b9150509250925092565b6000806040838503121561236d57600080fd5b600061237b8582860161228e565b925050602061238c858286016122cd565b9150509250929050565b600080604083850312156123a957600080fd5b600083013567ffffffffffffffff8111156123c357600080fd5b6123cf858286016122a3565b925050602083013567ffffffffffffffff8111156123ec57600080fd5b6123f8858286016122a3565b9150509250929050565b60006020828403121561241457600080fd5b6000612422848285016122cd565b91505092915050565b6000806040838503121561243e57600080fd5b600061244c858286016122cd565b925050602061245d858286016122cd565b9150509250929050565b6000612473838361282a565b905092915050565b6000612487838361295a565b60208301905092915050565b61249c81612e90565b82525050565b6124b36124ae82612e90565b61305a565b82525050565b60006124c482612cc1565b6124ce8185612cfc565b9350836020820285016124e085612c8c565b8060005b8581101561251c57848403895281516124fd8582612467565b945061250883612ce2565b925060208a019950506001810190506124e4565b50829750879550505050505092915050565b600061253982612ccc565b6125438185612d0d565b935061254e83612c9c565b8060005b8381101561257f578151612566888261247b565b975061257183612cef565b925050600181019050612552565b5085935050505092915050565b600061259782612cd7565b6125a18185612d1e565b93506125b1818560208601612ef9565b6125ba81613175565b840191505092915050565b60006125d082612cd7565b6125da8185612d2f565b93506125ea818560208601612ef9565b6125f381613175565b840191505092915050565b6000815461260b81612f56565b6126158186612d2f565b94506001821660008114612630576001811461264257612675565b60ff1983168652602086019350612675565b61264b85612cac565b60005b8381101561266d5781548189015260018201915060208101905061264e565b808801955050505b50505092915050565b600061268b602683612d2f565b915061269682613193565b604082019050919050565b60006126ae601383612d2f565b91506126b9826131e2565b602082019050919050565b60006126d1602083612d2f565b91506126dc8261320b565b602082019050919050565b60006126f4602383612d2f565b91506126ff82613234565b604082019050919050565b600060c083016000830151612722600086018261298f565b506020830151612735602086018261298f565b506040830151612748604086018261298f565b5060608301518482036060860152612760828261258c565b9150506080830151848203608086015261277a828261258c565b91505060a083015161278f60a086018261298f565b508091505092915050565b600060c0830160008301516127b2600086018261298f565b5060208301516127c5602086018261298f565b5060408301516127d8604086018261298f565b50606083015184820360608601526127f0828261258c565b9150506080830151848203608086015261280a828261258c565b91505060a083015161281f60a086018261298f565b508091505092915050565b600061018083016000830151612843600086018261295a565b506020830151612856602086018261295a565b506040830151612869604086018261295a565b5060608301518482036060860152612881828261258c565b9150506080830151612896608086018261298f565b5060a08301516128a960a086018261298f565b5060c08301516128bc60c086018261298f565b5060e083015184820360e08601526128d4828261258c565b9150506101008301518482036101008601526128f0828261270a565b91505061012083015161290761012086018261293c565b5061014083015161291c61014086018261293c565b5061016083015161293161016086018261293c565b508091505092915050565b61294581612ea2565b82525050565b61295481612ea2565b82525050565b61296381612ed0565b82525050565b61297281612ed0565b82525050565b61298961298482612ed0565b61307e565b82525050565b61299881612eda565b82525050565b6129a781612eda565b82525050565b60006129b98286612978565b6020820191506129c982856124a2565b6014820191506129d98284612978565b602082019150819050949350505050565b60006020820190506129ff6000830184612493565b92915050565b60006020820190508181036000830152612a1f81846124b9565b905092915050565b60006020820190508181036000830152612a41818461252e565b905092915050565b60006060820190508181036000830152612a6381866125fe565b9050612a726020830185612969565b8181036040830152612a8481846125fe565b9050949350505050565b60006020820190508181036000830152612aa78161267e565b9050919050565b60006020820190508181036000830152612ac7816126a1565b9050919050565b60006020820190508181036000830152612ae7816126c4565b9050919050565b60006020820190508181036000830152612b07816126e7565b9050919050565b6000602082019050612b236000830184612969565b92915050565b6000606082019050612b3e6000830186612969565b612b4b6020830185612969565b8181036040830152612b5d81846125c5565b9050949350505050565b600061018082019050612b7d600083018f612969565b612b8a602083018e612969565b612b97604083018d612969565b8181036060830152612ba9818c6125c5565b9050612bb8608083018b61299e565b612bc560a083018a61299e565b612bd260c083018961299e565b81810360e0830152612be481886125c5565b9050818103610100830152612bf9818761279a565b9050612c0961012083018661294b565b612c1761014083018561294b565b612c2561016083018461294b565b9d9c50505050505050505050505050565b6000612c40612c51565b9050612c4c8282612f88565b919050565b6000604051905090565b600067ffffffffffffffff821115612c7657612c75613146565b5b612c7f82613175565b9050602081019050919050565b6000819050602082019050919050565b6000819050602082019050919050565b60008190508160005260206000209050919050565b600081519050919050565b600081519050919050565b600081519050919050565b6000602082019050919050565b6000602082019050919050565b600082825260208201905092915050565b600082825260208201905092915050565b600082825260208201905092915050565b600082825260208201905092915050565b6000612d4b82612ea2565b9150612d5683612ea2565b92508261ffff03821115612d6d57612d6c6130b9565b5b828201905092915050565b6000612d8382612ed0565b9150612d8e83612ed0565b9250827fffffffffffffffffffffffffffffffffffffffffffffffffffffffffffffffff03821115612dc357612dc26130b9565b5b828201905092915050565b6000612dd982612ed0565b9150612de483612ed0565b9250817fffffffffffffffffffffffffffffffffffffffffffffffffffffffffffffffff0483118215151615612e1d57612e1c6130b9565b5b828202905092915050565b6000612e3382612ed0565b9150612e3e83612ed0565b925082821015612e5157612e506130b9565b5b828203905092915050565b6000612e6782612eda565b9150612e7283612eda565b925082821015612e8557612e846130b9565b5b828203905092915050565b6000612e9b82612eb0565b9050919050565b600061ffff82169050919050565b600073ffffffffffffffffffffffffffffffffffffffff82169050919050565b6000819050919050565b600063ffffffff82169050919050565b82818337600083830152505050565b60005b83811015612f17578082015181840152602081019050612efc565b83811115612f26576000848401525b50505050565b6000612f3782612ed0565b91506000821415612f4b57612f4a6130b9565b5b600182039050919050565b60006002820490506001821680612f6e57607f821691505b60208210811415612f8257612f81613117565b5b50919050565b612f9182613175565b810181811067ffffffffffffffff82111715612fb057612faf613146565b5b80604052505050565b6000612fc482612ea2565b915061ffff821415612fd957612fd86130b9565b5b600182019050919050565b6000612fef82612ed0565b91507fffffffffffffffffffffffffffffffffffffffffffffffffffffffffffffffff821415613022576130216130b9565b5b600182019050919050565b600061303882612eda565b915063ffffffff82141561304f5761304e6130b9565b5b600182019050919050565b60006130658261306c565b9050919050565b600061307782613186565b9050919050565b6000819050919050565b600061309382612ed0565b915061309e83612ed0565b9250826130ae576130ad6130e8565b5b828206905092915050565b7f4e487b7100000000000000000000000000000000000000000000000000000000600052601160045260246000fd5b7f4e487b7100000000000000000000000000000000000000000000000000000000600052601260045260246000fd5b7f4e487b7100000000000000000000000000000000000000000000000000000000600052602260045260246000fd5b7f4e487b7100000000000000000000000000000000000000000000000000000000600052604160045260246000fd5b6000601f19601f8301169050919050565b60008160601b9050919050565b7f4f776e61626c653a206e6577206f776e657220697320746865207a65726f206160008201527f6464726573730000000000000000000000000000000000000000000000000000602082015250565b7f42656e646572206973206e6f7420726561647900000000000000000000000000600082015250565b7f4f776e61626c653a2063616c6c6572206973206e6f7420746865206f776e6572600082015250565b7f596f752063616e277420637265617465206d6f7265207468616e20312062656e60008201527f6465720000000000000000000000000000000000000000000000000000000000602082015250565b61328c81612e90565b811461329757600080fd5b50565b6132a381612ed0565b81146132ae57600080fd5b5056fea264697066735822122064bc63cab423148ab44668b061fe0da45dbb0a570e2a3f3be8e4139acecc08c264736f6c63430008040033",
  "linkReferences": {},
  "deployedLinkReferences": {}
}