{
  "_format": "hh-sol-artifact-1",
  "contractName": "BendingNFTMarket",
  "sourceName": "contracts/BendingNFTMarket.sol",
  "abi": [
    {
      "inputs": [],
      "stateMutability": "nonpayable",
      "type": "constructor"
    },
    {
      "anonymous": false,
      "inputs": [
        {
          "indexed": true,
          "internalType": "uint256",
          "name": "itemId",
          "type": "uint256"
        },
        {
          "indexed": true,
          "internalType": "address",
          "name": "ntfContract",
          "type": "address"
        },
        {
          "indexed": true,
          "internalType": "uint256",
          "name": "tokenId",
          "type": "uint256"
        },
        {
          "indexed": false,
          "internalType": "address payable",
          "name": "seller",
          "type": "address"
        },
        {
          "indexed": false,
          "internalType": "address payable",
          "name": "owner",
          "type": "address"
        },
        {
          "indexed": false,
          "internalType": "uint256",
          "name": "price",
          "type": "uint256"
        },
        {
          "indexed": false,
          "internalType": "uint256",
          "name": "lastPrice",
          "type": "uint256"
        },
        {
          "indexed": false,
          "internalType": "bool",
          "name": "sold",
          "type": "bool"
        }
      ],
      "name": "MarketItemCreated",
      "type": "event"
    },
    {
      "anonymous": false,
      "inputs": [
        {
          "indexed": true,
          "internalType": "address",
          "name": "previousOwner",
          "type": "address"
        },
        {
          "indexed": true,
          "internalType": "address",
          "name": "newOwner",
          "type": "address"
        }
      ],
      "name": "OwnershipTransferred",
      "type": "event"
    },
    {
      "inputs": [
        {
          "internalType": "address",
          "name": "_nftContract",
          "type": "address"
        },
        {
          "internalType": "uint256",
          "name": "_tokenId",
          "type": "uint256"
        },
        {
          "internalType": "uint256",
          "name": "_price",
          "type": "uint256"
        }
      ],
      "name": "createMarketItem",
      "outputs": [],
      "stateMutability": "payable",
      "type": "function"
    },
    {
      "inputs": [
        {
          "internalType": "address",
          "name": "_nftContract",
          "type": "address"
        },
        {
          "internalType": "uint256",
          "name": "_itemId",
          "type": "uint256"
        }
      ],
      "name": "createMarketSale",
      "outputs": [],
      "stateMutability": "payable",
      "type": "function"
    },
    {
      "inputs": [],
      "name": "getListingPrice",
      "outputs": [
        {
          "internalType": "uint256",
          "name": "",
          "type": "uint256"
        }
      ],
      "stateMutability": "view",
      "type": "function"
    },
    {
      "inputs": [
        {
          "internalType": "uint256",
          "name": "_itemId",
          "type": "uint256"
        }
      ],
      "name": "getMarketItem",
      "outputs": [
        {
          "components": [
            {
              "internalType": "uint256",
              "name": "itemId",
              "type": "uint256"
            },
            {
              "internalType": "address",
              "name": "ntfContract",
              "type": "address"
            },
            {
              "internalType": "uint256",
              "name": "tokenId",
              "type": "uint256"
            },
            {
              "internalType": "address payable",
              "name": "seller",
              "type": "address"
            },
            {
              "internalType": "address payable",
              "name": "owner",
              "type": "address"
            },
            {
              "internalType": "uint256",
              "name": "price",
              "type": "uint256"
            },
            {
              "internalType": "uint256",
              "name": "lastPrice",
              "type": "uint256"
            },
            {
              "internalType": "bool",
              "name": "sold",
              "type": "bool"
            }
          ],
          "internalType": "struct BendingNFTMarket.MarketItem",
          "name": "",
          "type": "tuple"
        }
      ],
      "stateMutability": "view",
      "type": "function"
    },
    {
      "inputs": [],
      "name": "getMarketItems",
      "outputs": [
        {
          "components": [
            {
              "internalType": "uint256",
              "name": "itemId",
              "type": "uint256"
            },
            {
              "internalType": "address",
              "name": "ntfContract",
              "type": "address"
            },
            {
              "internalType": "uint256",
              "name": "tokenId",
              "type": "uint256"
            },
            {
              "internalType": "address payable",
              "name": "seller",
              "type": "address"
            },
            {
              "internalType": "address payable",
              "name": "owner",
              "type": "address"
            },
            {
              "internalType": "uint256",
              "name": "price",
              "type": "uint256"
            },
            {
              "internalType": "uint256",
              "name": "lastPrice",
              "type": "uint256"
            },
            {
              "internalType": "bool",
              "name": "sold",
              "type": "bool"
            }
          ],
          "internalType": "struct BendingNFTMarket.MarketItem[]",
          "name": "",
          "type": "tuple[]"
        }
      ],
      "stateMutability": "view",
      "type": "function"
    },
    {
      "inputs": [],
      "name": "getMyCreatedNFTs",
      "outputs": [
        {
          "components": [
            {
              "internalType": "uint256",
              "name": "itemId",
              "type": "uint256"
            },
            {
              "internalType": "address",
              "name": "ntfContract",
              "type": "address"
            },
            {
              "internalType": "uint256",
              "name": "tokenId",
              "type": "uint256"
            },
            {
              "internalType": "address payable",
              "name": "seller",
              "type": "address"
            },
            {
              "internalType": "address payable",
              "name": "owner",
              "type": "address"
            },
            {
              "internalType": "uint256",
              "name": "price",
              "type": "uint256"
            },
            {
              "internalType": "uint256",
              "name": "lastPrice",
              "type": "uint256"
            },
            {
              "internalType": "bool",
              "name": "sold",
              "type": "bool"
            }
          ],
          "internalType": "struct BendingNFTMarket.MarketItem[]",
          "name": "",
          "type": "tuple[]"
        }
      ],
      "stateMutability": "view",
      "type": "function"
    },
    {
      "inputs": [],
      "name": "getMyNFTs",
      "outputs": [
        {
          "components": [
            {
              "internalType": "uint256",
              "name": "itemId",
              "type": "uint256"
            },
            {
              "internalType": "address",
              "name": "ntfContract",
              "type": "address"
            },
            {
              "internalType": "uint256",
              "name": "tokenId",
              "type": "uint256"
            },
            {
              "internalType": "address payable",
              "name": "seller",
              "type": "address"
            },
            {
              "internalType": "address payable",
              "name": "owner",
              "type": "address"
            },
            {
              "internalType": "uint256",
              "name": "price",
              "type": "uint256"
            },
            {
              "internalType": "uint256",
              "name": "lastPrice",
              "type": "uint256"
            },
            {
              "internalType": "bool",
              "name": "sold",
              "type": "bool"
            }
          ],
          "internalType": "struct BendingNFTMarket.MarketItem[]",
          "name": "",
          "type": "tuple[]"
        }
      ],
      "stateMutability": "view",
      "type": "function"
    },
    {
      "inputs": [],
      "name": "owner",
      "outputs": [
        {
          "internalType": "address",
          "name": "",
          "type": "address"
        }
      ],
      "stateMutability": "view",
      "type": "function"
    },
    {
      "inputs": [],
      "name": "renounceOwnership",
      "outputs": [],
      "stateMutability": "nonpayable",
      "type": "function"
    },
    {
      "inputs": [
        {
          "internalType": "address",
          "name": "_nftContract",
          "type": "address"
        },
        {
          "internalType": "uint256",
          "name": "_itemId",
          "type": "uint256"
        },
        {
          "internalType": "uint256",
          "name": "_price",
          "type": "uint256"
        }
      ],
      "name": "resellMarketItem",
      "outputs": [],
      "stateMutability": "payable",
      "type": "function"
    },
    {
      "inputs": [
        {
          "internalType": "uint256",
          "name": "_listingPrice",
          "type": "uint256"
        }
      ],
      "name": "setListingPrice",
      "outputs": [],
      "stateMutability": "nonpayable",
      "type": "function"
    },
    {
      "inputs": [
        {
          "internalType": "address",
          "name": "newOwner",
          "type": "address"
        }
      ],
      "name": "transferOwnership",
      "outputs": [],
      "stateMutability": "nonpayable",
      "type": "function"
    }
  ],
  "bytecode": "0x60806040526658d15e176280006006553480156200001c57600080fd5b506200003d620000316200008b60201b60201c565b6200009360201b60201c565b6001808190555033600560006101000a81548173ffffffffffffffffffffffffffffffffffffffff021916908373ffffffffffffffffffffffffffffffffffffffff16021790555062000157565b600033905090565b60008060009054906101000a900473ffffffffffffffffffffffffffffffffffffffff169050816000806101000a81548173ffffffffffffffffffffffffffffffffffffffff021916908373ffffffffffffffffffffffffffffffffffffffff1602179055508173ffffffffffffffffffffffffffffffffffffffff168173ffffffffffffffffffffffffffffffffffffffff167f8be0079c531659141344cd1fd0a4f28419497f9722a3daafe3b4186f6b6457e060405160405180910390a35050565b61251980620001676000396000f3fe6080604052600436106100a75760003560e01c80637c726b69116100645780637c726b691461018b5780638da5cb5b146101b45780638eb6ee4a146101df578063c23b139e146101fb578063c7be7a4914610217578063f2fde38b14610254576100a7565b806312e85585146100ac5780631a9d2686146100d757806329aa3a421461010257806358eb2df51461012d578063629cb2e414610149578063715018a614610174575b600080fd5b3480156100b857600080fd5b506100c161027d565b6040516100ce91906121a3565b60405180910390f35b3480156100e357600080fd5b506100ec610287565b6040516100f99190612085565b60405180910390f35b34801561010e57600080fd5b506101176105a1565b6040516101249190612085565b60405180910390f35b61014760048036038101906101429190611bde565b610897565b005b34801561015557600080fd5b5061015e610c63565b60405161016b9190612085565b60405180910390f35b34801561018057600080fd5b50610189610f7d565b005b34801561019757600080fd5b506101b260048036038101906101ad9190611c2d565b611005565b005b3480156101c057600080fd5b506101c961108b565b6040516101d69190611f8d565b60405180910390f35b6101f960048036038101906101f49190611bde565b6110b4565b005b61021560048036038101906102109190611ba2565b6113e3565b005b34801561022357600080fd5b5061023e60048036038101906102399190611c2d565b61170f565b60405161024b9190612187565b60405180910390f35b34801561026057600080fd5b5061027b60048036038101906102769190611b79565b611882565b005b6000600654905090565b60606000610295600261197a565b9050600080600760003373ffffffffffffffffffffffffffffffffffffffff1673ffffffffffffffffffffffffffffffffffffffff1681526020019081526020016000205467ffffffffffffffff811115610319577f4e487b7100000000000000000000000000000000000000000000000000000000600052604160045260246000fd5b60405190808252806020026020018201604052801561035257816020015b61033f611ac6565b8152602001906001900390816103375790505b5090506000600190505b838111610597573373ffffffffffffffffffffffffffffffffffffffff16600a600083815260200190815260200160002060030160009054906101000a900473ffffffffffffffffffffffffffffffffffffffff1673ffffffffffffffffffffffffffffffffffffffff16141561058457600a600082815260200190815260200160002060405180610100016040529081600082015481526020016001820160009054906101000a900473ffffffffffffffffffffffffffffffffffffffff1673ffffffffffffffffffffffffffffffffffffffff1673ffffffffffffffffffffffffffffffffffffffff168152602001600282015481526020016003820160009054906101000a900473ffffffffffffffffffffffffffffffffffffffff1673ffffffffffffffffffffffffffffffffffffffff1673ffffffffffffffffffffffffffffffffffffffff1681526020016004820160009054906101000a900473ffffffffffffffffffffffffffffffffffffffff1673ffffffffffffffffffffffffffffffffffffffff1673ffffffffffffffffffffffffffffffffffffffff16815260200160058201548152602001600682015481526020016007820160009054906101000a900460ff16151515158152505082848151811061056a577f4e487b7100000000000000000000000000000000000000000000000000000000600052603260045260246000fd5b60200260200101819052508280610580906122d2565b9350505b808061058f906122d2565b91505061035c565b5080935050505090565b606060006105af600261197a565b905060006105bd600361197a565b826105c89190612208565b90506000808267ffffffffffffffff81111561060d577f4e487b7100000000000000000000000000000000000000000000000000000000600052604160045260246000fd5b60405190808252806020026020018201604052801561064657816020015b610633611ac6565b81526020019060019003908161062b5790505b5090506000600190505b84811161088c57600073ffffffffffffffffffffffffffffffffffffffff16600a600083815260200190815260200160002060040160009054906101000a900473ffffffffffffffffffffffffffffffffffffffff1673ffffffffffffffffffffffffffffffffffffffff16141561087957600a600082815260200190815260200160002060405180610100016040529081600082015481526020016001820160009054906101000a900473ffffffffffffffffffffffffffffffffffffffff1673ffffffffffffffffffffffffffffffffffffffff1673ffffffffffffffffffffffffffffffffffffffff168152602001600282015481526020016003820160009054906101000a900473ffffffffffffffffffffffffffffffffffffffff1673ffffffffffffffffffffffffffffffffffffffff1673ffffffffffffffffffffffffffffffffffffffff1681526020016004820160009054906101000a900473ffffffffffffffffffffffffffffffffffffffff1673ffffffffffffffffffffffffffffffffffffffff1673ffffffffffffffffffffffffffffffffffffffff16815260200160058201548152602001600682015481526020016007820160009054906101000a900460ff16151515158152505082848151811061085f577f4e487b7100000000000000000000000000000000000000000000000000000000600052603260045260246000fd5b60200260200101819052508280610875906122d2565b9350505b8080610884906122d2565b915050610650565b508094505050505090565b600260015414156108dd576040517f08c379a00000000000000000000000000000000000000000000000000000000081526004016108d490612127565b60405180910390fd5b600260018190555060008111610928576040517f08c379a000000000000000000000000000000000000000000000000000000000815260040161091f90612147565b60405180910390fd5b600654341461096c576040517f08c379a000000000000000000000000000000000000000000000000000000000815260040161096390612107565b60405180910390fd5b6109766002611988565b6000610982600261197a565b90506040518061010001604052808281526020018573ffffffffffffffffffffffffffffffffffffffff1681526020018481526020013373ffffffffffffffffffffffffffffffffffffffff168152602001600073ffffffffffffffffffffffffffffffffffffffff1681526020018381526020016000815260200160001515815250600a60008381526020019081526020016000206000820151816000015560208201518160010160006101000a81548173ffffffffffffffffffffffffffffffffffffffff021916908373ffffffffffffffffffffffffffffffffffffffff1602179055506040820151816002015560608201518160030160006101000a81548173ffffffffffffffffffffffffffffffffffffffff021916908373ffffffffffffffffffffffffffffffffffffffff16021790555060808201518160040160006101000a81548173ffffffffffffffffffffffffffffffffffffffff021916908373ffffffffffffffffffffffffffffffffffffffff16021790555060a0820151816005015560c0820151816006015560e08201518160070160006101000a81548160ff021916908315150217905550905050600760003373ffffffffffffffffffffffffffffffffffffffff1673ffffffffffffffffffffffffffffffffffffffff1681526020019081526020016000206000815480929190610b88906122d2565b91905055508373ffffffffffffffffffffffffffffffffffffffff166323b872dd3330866040518463ffffffff1660e01b8152600401610bca9392919061204e565b600060405180830381600087803b158015610be457600080fd5b505af1158015610bf8573d6000803e3d6000fd5b50505050828473ffffffffffffffffffffffffffffffffffffffff16827fd0bb1eaea8ab6cd0c288f209757734c5e280d8f4e05f93b1db82da8db727875833600087600080604051610c4e959493929190611fa8565b60405180910390a45060018081905550505050565b60606000610c71600261197a565b9050600080600860003373ffffffffffffffffffffffffffffffffffffffff1673ffffffffffffffffffffffffffffffffffffffff1681526020019081526020016000205467ffffffffffffffff811115610cf5577f4e487b7100000000000000000000000000000000000000000000000000000000600052604160045260246000fd5b604051908082528060200260200182016040528015610d2e57816020015b610d1b611ac6565b815260200190600190039081610d135790505b5090506000600190505b838111610f73573373ffffffffffffffffffffffffffffffffffffffff16600a600083815260200190815260200160002060040160009054906101000a900473ffffffffffffffffffffffffffffffffffffffff1673ffffffffffffffffffffffffffffffffffffffff161415610f6057600a600082815260200190815260200160002060405180610100016040529081600082015481526020016001820160009054906101000a900473ffffffffffffffffffffffffffffffffffffffff1673ffffffffffffffffffffffffffffffffffffffff1673ffffffffffffffffffffffffffffffffffffffff168152602001600282015481526020016003820160009054906101000a900473ffffffffffffffffffffffffffffffffffffffff1673ffffffffffffffffffffffffffffffffffffffff1673ffffffffffffffffffffffffffffffffffffffff1681526020016004820160009054906101000a900473ffffffffffffffffffffffffffffffffffffffff1673ffffffffffffffffffffffffffffffffffffffff1673ffffffffffffffffffffffffffffffffffffffff16815260200160058201548152602001600682015481526020016007820160009054906101000a900460ff161515151581525050828481518110610f46577f4e487b7100000000000000000000000000000000000000000000000000000000600052603260045260246000fd5b60200260200101819052508280610f5c906122d2565b9350505b8080610f6b906122d2565b915050610d38565b5080935050505090565b610f8561199e565b73ffffffffffffffffffffffffffffffffffffffff16610fa361108b565b73ffffffffffffffffffffffffffffffffffffffff1614610ff9576040517f08c379a0000000000000000000000000000000000000000000000000000000008152600401610ff0906120e7565b60405180910390fd5b61100360006119a6565b565b61100d61199e565b73ffffffffffffffffffffffffffffffffffffffff1661102b61108b565b73ffffffffffffffffffffffffffffffffffffffff1614611081576040517f08c379a0000000000000000000000000000000000000000000000000000000008152600401611078906120e7565b60405180910390fd5b8060068190555050565b60008060009054906101000a900473ffffffffffffffffffffffffffffffffffffffff16905090565b600260015414156110fa576040517f08c379a00000000000000000000000000000000000000000000000000000000081526004016110f190612127565b60405180910390fd5b600260018190555060008111611145576040517f08c379a000000000000000000000000000000000000000000000000000000000815260040161113c90612147565b60405180910390fd5b6006543414611189576040517f08c379a000000000000000000000000000000000000000000000000000000000815260040161118090612107565b60405180910390fd5b6000600a6000848152602001908152602001600020905060008160070160006101000a81548160ff021916908315150217905550818160050181905550338160030160006101000a81548173ffffffffffffffffffffffffffffffffffffffff021916908373ffffffffffffffffffffffffffffffffffffffff16021790555060008160040160006101000a81548173ffffffffffffffffffffffffffffffffffffffff021916908373ffffffffffffffffffffffffffffffffffffffff160217905550600760003373ffffffffffffffffffffffffffffffffffffffff1673ffffffffffffffffffffffffffffffffffffffff168152602001908152602001600020600081548092919061129d906122d2565b9190505550600860003373ffffffffffffffffffffffffffffffffffffffff1673ffffffffffffffffffffffffffffffffffffffff16815260200190815260200160002060008154809291906112f2906122a8565b91905055506113016003611a6a565b8373ffffffffffffffffffffffffffffffffffffffff166323b872dd333084600201546040518463ffffffff1660e01b81526004016113429392919061204e565b600060405180830381600087803b15801561135c57600080fd5b505af1158015611370573d6000803e3d6000fd5b5050505080600201548473ffffffffffffffffffffffffffffffffffffffff16847fd0bb1eaea8ab6cd0c288f209757734c5e280d8f4e05f93b1db82da8db727875833600087876005015460006040516113ce959493929190611ffb565b60405180910390a45060018081905550505050565b6000600a60008381526020019081526020016000206005015490506000600a600084815260200190815260200160002060020154905034821461145b576040517f08c379a000000000000000000000000000000000000000000000000000000000815260040161145290612167565b60405180910390fd5b600a600084815260200190815260200160002060030160009054906101000a900473ffffffffffffffffffffffffffffffffffffffff1673ffffffffffffffffffffffffffffffffffffffff166108fc839081150290604051600060405180830381858888f193505050501580156114d7573d6000803e3d6000fd5b508373ffffffffffffffffffffffffffffffffffffffff166323b872dd3033846040518463ffffffff1660e01b81526004016115159392919061204e565b600060405180830381600087803b15801561152f57600080fd5b505af1158015611543573d6000803e3d6000fd5b5050505033600a600085815260200190815260200160002060040160006101000a81548173ffffffffffffffffffffffffffffffffffffffff021916908373ffffffffffffffffffffffffffffffffffffffff1602179055506001600a600085815260200190815260200160002060070160006101000a81548160ff0219169083151502179055506115d56003611988565b600560009054906101000a900473ffffffffffffffffffffffffffffffffffffffff1673ffffffffffffffffffffffffffffffffffffffff166108fc6006549081150290604051600060405180830381858888f1935050505015801561163f573d6000803e3d6000fd5b50600860003373ffffffffffffffffffffffffffffffffffffffff1673ffffffffffffffffffffffffffffffffffffffff1681526020019081526020016000206000815480929190611690906122d2565b919050555060096000848152602001908152602001600020339080600181540180825580915050600190039060005260206000200160009091909190916101000a81548173ffffffffffffffffffffffffffffffffffffffff021916908373ffffffffffffffffffffffffffffffffffffffff16021790555050505050565b611717611ac6565b600a600083815260200190815260200160002060405180610100016040529081600082015481526020016001820160009054906101000a900473ffffffffffffffffffffffffffffffffffffffff1673ffffffffffffffffffffffffffffffffffffffff1673ffffffffffffffffffffffffffffffffffffffff168152602001600282015481526020016003820160009054906101000a900473ffffffffffffffffffffffffffffffffffffffff1673ffffffffffffffffffffffffffffffffffffffff1673ffffffffffffffffffffffffffffffffffffffff1681526020016004820160009054906101000a900473ffffffffffffffffffffffffffffffffffffffff1673ffffffffffffffffffffffffffffffffffffffff1673ffffffffffffffffffffffffffffffffffffffff16815260200160058201548152602001600682015481526020016007820160009054906101000a900460ff1615151515815250509050919050565b61188a61199e565b73ffffffffffffffffffffffffffffffffffffffff166118a861108b565b73ffffffffffffffffffffffffffffffffffffffff16146118fe576040517f08c379a00000000000000000000000000000000000000000000000000000000081526004016118f5906120e7565b60405180910390fd5b600073ffffffffffffffffffffffffffffffffffffffff168173ffffffffffffffffffffffffffffffffffffffff16141561196e576040517f08c379a0000000000000000000000000000000000000000000000000000000008152600401611965906120c7565b60405180910390fd5b611977816119a6565b50565b600081600001549050919050565b6001816000016000828254019250508190555050565b600033905090565b60008060009054906101000a900473ffffffffffffffffffffffffffffffffffffffff169050816000806101000a81548173ffffffffffffffffffffffffffffffffffffffff021916908373ffffffffffffffffffffffffffffffffffffffff1602179055508173ffffffffffffffffffffffffffffffffffffffff168173ffffffffffffffffffffffffffffffffffffffff167f8be0079c531659141344cd1fd0a4f28419497f9722a3daafe3b4186f6b6457e060405160405180910390a35050565b60008160000154905060008111611ab6576040517f08c379a0000000000000000000000000000000000000000000000000000000008152600401611aad906120a7565b60405180910390fd5b6001810382600001819055505050565b60405180610100016040528060008152602001600073ffffffffffffffffffffffffffffffffffffffff16815260200160008152602001600073ffffffffffffffffffffffffffffffffffffffff168152602001600073ffffffffffffffffffffffffffffffffffffffff16815260200160008152602001600081526020016000151581525090565b600081359050611b5e816124b5565b92915050565b600081359050611b73816124cc565b92915050565b600060208284031215611b8b57600080fd5b6000611b9984828501611b4f565b91505092915050565b60008060408385031215611bb557600080fd5b6000611bc385828601611b4f565b9250506020611bd485828601611b64565b9150509250929050565b600080600060608486031215611bf357600080fd5b6000611c0186828701611b4f565b9350506020611c1286828701611b64565b9250506040611c2386828701611b64565b9150509250925092565b600060208284031215611c3f57600080fd5b6000611c4d84828501611b64565b91505092915050565b6000611c628383611e2b565b6101008301905092915050565b611c788161224e565b82525050565b611c878161224e565b82525050565b611c968161223c565b82525050565b611ca58161223c565b82525050565b6000611cb6826121ce565b611cc081856121e6565b9350611ccb836121be565b8060005b83811015611cfc578151611ce38882611c56565b9750611cee836121d9565b925050600181019050611ccf565b5085935050505092915050565b611d1281612260565b82525050565b611d2181612260565b82525050565b611d3081612296565b82525050565b6000611d43601b836121f7565b9150611d4e8261234a565b602082019050919050565b6000611d666026836121f7565b9150611d7182612373565b604082019050919050565b6000611d896020836121f7565b9150611d94826123c2565b602082019050919050565b6000611dac6024836121f7565b9150611db7826123eb565b604082019050919050565b6000611dcf601f836121f7565b9150611dda8261243a565b602082019050919050565b6000611df2601c836121f7565b9150611dfd82612463565b602082019050919050565b6000611e156020836121f7565b9150611e208261248c565b602082019050919050565b61010082016000820151611e426000850182611f6f565b506020820151611e556020850182611c8d565b506040820151611e686040850182611f6f565b506060820151611e7b6060850182611c6f565b506080820151611e8e6080850182611c6f565b5060a0820151611ea160a0850182611f6f565b5060c0820151611eb460c0850182611f6f565b5060e0820151611ec760e0850182611d09565b50505050565b61010082016000820151611ee46000850182611f6f565b506020820151611ef76020850182611c8d565b506040820151611f0a6040850182611f6f565b506060820151611f1d6060850182611c6f565b506080820151611f306080850182611c6f565b5060a0820151611f4360a0850182611f6f565b5060c0820151611f5660c0850182611f6f565b5060e0820151611f6960e0850182611d09565b50505050565b611f788161228c565b82525050565b611f878161228c565b82525050565b6000602082019050611fa26000830184611c9c565b92915050565b600060a082019050611fbd6000830188611c7e565b611fca6020830187611c7e565b611fd76040830186611f7e565b611fe46060830185611d27565b611ff16080830184611d18565b9695505050505050565b600060a0820190506120106000830188611c7e565b61201d6020830187611c7e565b61202a6040830186611f7e565b6120376060830185611f7e565b6120446080830184611d18565b9695505050505050565b60006060820190506120636000830186611c9c565b6120706020830185611c9c565b61207d6040830184611f7e565b949350505050565b6000602082019050818103600083015261209f8184611cab565b905092915050565b600060208201905081810360008301526120c081611d36565b9050919050565b600060208201905081810360008301526120e081611d59565b9050919050565b6000602082019050818103600083015261210081611d7c565b9050919050565b6000602082019050818103600083015261212081611d9f565b9050919050565b6000602082019050818103600083015261214081611dc2565b9050919050565b6000602082019050818103600083015261216081611de5565b9050919050565b6000602082019050818103600083015261218081611e08565b9050919050565b60006101008201905061219d6000830184611ecd565b92915050565b60006020820190506121b86000830184611f7e565b92915050565b6000819050602082019050919050565b600081519050919050565b6000602082019050919050565b600082825260208201905092915050565b600082825260208201905092915050565b60006122138261228c565b915061221e8361228c565b9250828210156122315761223061231b565b5b828203905092915050565b60006122478261226c565b9050919050565b60006122598261226c565b9050919050565b60008115159050919050565b600073ffffffffffffffffffffffffffffffffffffffff82169050919050565b6000819050919050565b60006122a18261228c565b9050919050565b60006122b38261228c565b915060008214156122c7576122c661231b565b5b600182039050919050565b60006122dd8261228c565b91507fffffffffffffffffffffffffffffffffffffffffffffffffffffffffffffffff8214156123105761230f61231b565b5b600182019050919050565b7f4e487b7100000000000000000000000000000000000000000000000000000000600052601160045260246000fd5b7f436f756e7465723a2064656372656d656e74206f766572666c6f770000000000600082015250565b7f4f776e61626c653a206e6577206f776e657220697320746865207a65726f206160008201527f6464726573730000000000000000000000000000000000000000000000000000602082015250565b7f4f776e61626c653a2063616c6c6572206973206e6f7420746865206f776e6572600082015250565b7f5072696365206d75737420626520657175616c20746f206c697374696e67207060008201527f7269636500000000000000000000000000000000000000000000000000000000602082015250565b7f5265656e7472616e637947756172643a207265656e7472616e742063616c6c00600082015250565b7f5072696365206d757374206265206174206c6561737420312077656900000000600082015250565b7f506c65617365207375626d697420746865207265717569726564207072696365600082015250565b6124be8161223c565b81146124c957600080fd5b50565b6124d58161228c565b81146124e057600080fd5b5056fea264697066735822122064678c7baa5ac74d49324e6b72f4cdb53ca7c69a2014fc6cf4acc5dfb7f973ea64736f6c63430008040033",
  "linkReferences": {},
  "deployedLinkReferences": {}
}