{
  "_format": "hh-sol-artifact-1",
  "contractName": "BenderBending",
  "sourceName": "contracts/BenderBending.sol",
  "abi": [
    {
      "anonymous": false,
      "inputs": [
        {
          "indexed": true,
          "internalType": "address",
          "name": "previousOwner",
          "type": "address"
        },
        {
          "indexed": true,
          "internalType": "address",
          "name": "newOwner",
          "type": "address"
        }
      ],
      "name": "OwnershipTransferred",
      "type": "event"
    },
    {
      "inputs": [
        {
          "internalType": "uint256",
          "name": "",
          "type": "uint256"
        }
      ],
      "name": "benderToOwner",
      "outputs": [
        {
          "internalType": "address",
          "name": "",
          "type": "address"
        }
      ],
      "stateMutability": "view",
      "type": "function"
    },
    {
      "inputs": [
        {
          "internalType": "uint256",
          "name": "",
          "type": "uint256"
        }
      ],
      "name": "benders",
      "outputs": [
        {
          "internalType": "uint256",
          "name": "tokenId",
          "type": "uint256"
        },
        {
          "internalType": "uint256",
          "name": "health",
          "type": "uint256"
        },
        {
          "internalType": "uint256",
          "name": "HP",
          "type": "uint256"
        },
        {
          "internalType": "uint64",
          "name": "strength",
          "type": "uint64"
        },
        {
          "internalType": "uint64",
          "name": "speed",
          "type": "uint64"
        },
        {
          "internalType": "uint64",
          "name": "agility",
          "type": "uint64"
        },
        {
          "internalType": "uint32",
          "name": "chi",
          "type": "uint32"
        },
        {
          "internalType": "uint32",
          "name": "readyAt",
          "type": "uint32"
        },
        {
          "components": [
            {
              "internalType": "uint256",
              "name": "wins",
              "type": "uint256"
            },
            {
              "internalType": "uint256",
              "name": "losses",
              "type": "uint256"
            }
          ],
          "internalType": "struct BenderBase.Record",
          "name": "record",
          "type": "tuple"
        },
        {
          "internalType": "uint16",
          "name": "points",
          "type": "uint16"
        },
        {
          "internalType": "string",
          "name": "name",
          "type": "string"
        },
        {
          "internalType": "string",
          "name": "element",
          "type": "string"
        }
      ],
      "stateMutability": "view",
      "type": "function"
    },
    {
      "inputs": [
        {
          "internalType": "uint32",
          "name": "_minDamage",
          "type": "uint32"
        },
        {
          "internalType": "uint32",
          "name": "_maxDamage",
          "type": "uint32"
        },
        {
          "internalType": "uint32",
          "name": "_precision",
          "type": "uint32"
        },
        {
          "internalType": "uint32",
          "name": "_cost",
          "type": "uint32"
        },
        {
          "internalType": "string",
          "name": "_name",
          "type": "string"
        },
        {
          "internalType": "string",
          "name": "_element",
          "type": "string"
        },
        {
          "internalType": "uint256",
          "name": "_price",
          "type": "uint256"
        }
      ],
      "name": "createAttack",
      "outputs": [],
      "stateMutability": "nonpayable",
      "type": "function"
    },
    {
      "inputs": [],
      "name": "getAttacks",
      "outputs": [
        {
          "components": [
            {
              "internalType": "uint32",
              "name": "minDamage",
              "type": "uint32"
            },
            {
              "internalType": "uint32",
              "name": "maxDamage",
              "type": "uint32"
            },
            {
              "internalType": "uint32",
              "name": "precision",
              "type": "uint32"
            },
            {
              "internalType": "uint32",
              "name": "cost",
              "type": "uint32"
            },
            {
              "internalType": "string",
              "name": "name",
              "type": "string"
            },
            {
              "internalType": "string",
              "name": "element",
              "type": "string"
            },
            {
              "internalType": "uint256",
              "name": "price",
              "type": "uint256"
            }
          ],
          "internalType": "struct BenderBending.Attack[]",
          "name": "",
          "type": "tuple[]"
        }
      ],
      "stateMutability": "view",
      "type": "function"
    },
    {
      "inputs": [
        {
          "internalType": "uint256",
          "name": "tokenId",
          "type": "uint256"
        }
      ],
      "name": "getBender",
      "outputs": [
        {
          "components": [
            {
              "internalType": "uint256",
              "name": "tokenId",
              "type": "uint256"
            },
            {
              "internalType": "uint256",
              "name": "health",
              "type": "uint256"
            },
            {
              "internalType": "uint256",
              "name": "HP",
              "type": "uint256"
            },
            {
              "internalType": "uint64",
              "name": "strength",
              "type": "uint64"
            },
            {
              "internalType": "uint64",
              "name": "speed",
              "type": "uint64"
            },
            {
              "internalType": "uint64",
              "name": "agility",
              "type": "uint64"
            },
            {
              "internalType": "uint32",
              "name": "chi",
              "type": "uint32"
            },
            {
              "internalType": "uint32",
              "name": "readyAt",
              "type": "uint32"
            },
            {
              "components": [
                {
                  "internalType": "uint256",
                  "name": "wins",
                  "type": "uint256"
                },
                {
                  "internalType": "uint256",
                  "name": "losses",
                  "type": "uint256"
                }
              ],
              "internalType": "struct BenderBase.Record",
              "name": "record",
              "type": "tuple"
            },
            {
              "internalType": "uint16",
              "name": "points",
              "type": "uint16"
            },
            {
              "internalType": "string",
              "name": "name",
              "type": "string"
            },
            {
              "internalType": "string",
              "name": "element",
              "type": "string"
            }
          ],
          "internalType": "struct BenderBase.Bender",
          "name": "",
          "type": "tuple"
        }
      ],
      "stateMutability": "view",
      "type": "function"
    },
    {
      "inputs": [
        {
          "internalType": "uint256",
          "name": "_benderId",
          "type": "uint256"
        }
      ],
      "name": "getBenderAttacks",
      "outputs": [
        {
          "components": [
            {
              "internalType": "uint32",
              "name": "minDamage",
              "type": "uint32"
            },
            {
              "internalType": "uint32",
              "name": "maxDamage",
              "type": "uint32"
            },
            {
              "internalType": "uint32",
              "name": "precision",
              "type": "uint32"
            },
            {
              "internalType": "uint32",
              "name": "cost",
              "type": "uint32"
            },
            {
              "internalType": "string",
              "name": "name",
              "type": "string"
            },
            {
              "internalType": "string",
              "name": "element",
              "type": "string"
            },
            {
              "internalType": "uint256",
              "name": "price",
              "type": "uint256"
            }
          ],
          "internalType": "struct BenderBending.Attack[]",
          "name": "",
          "type": "tuple[]"
        }
      ],
      "stateMutability": "view",
      "type": "function"
    },
    {
      "inputs": [],
      "name": "getBenders",
      "outputs": [
        {
          "components": [
            {
              "internalType": "uint256",
              "name": "tokenId",
              "type": "uint256"
            },
            {
              "internalType": "uint256",
              "name": "health",
              "type": "uint256"
            },
            {
              "internalType": "uint256",
              "name": "HP",
              "type": "uint256"
            },
            {
              "internalType": "uint64",
              "name": "strength",
              "type": "uint64"
            },
            {
              "internalType": "uint64",
              "name": "speed",
              "type": "uint64"
            },
            {
              "internalType": "uint64",
              "name": "agility",
              "type": "uint64"
            },
            {
              "internalType": "uint32",
              "name": "chi",
              "type": "uint32"
            },
            {
              "internalType": "uint32",
              "name": "readyAt",
              "type": "uint32"
            },
            {
              "components": [
                {
                  "internalType": "uint256",
                  "name": "wins",
                  "type": "uint256"
                },
                {
                  "internalType": "uint256",
                  "name": "losses",
                  "type": "uint256"
                }
              ],
              "internalType": "struct BenderBase.Record",
              "name": "record",
              "type": "tuple"
            },
            {
              "internalType": "uint16",
              "name": "points",
              "type": "uint16"
            },
            {
              "internalType": "string",
              "name": "name",
              "type": "string"
            },
            {
              "internalType": "string",
              "name": "element",
              "type": "string"
            }
          ],
          "internalType": "struct BenderBase.Bender[]",
          "name": "",
          "type": "tuple[]"
        }
      ],
      "stateMutability": "view",
      "type": "function"
    },
    {
      "inputs": [],
      "name": "owner",
      "outputs": [
        {
          "internalType": "address",
          "name": "",
          "type": "address"
        }
      ],
      "stateMutability": "view",
      "type": "function"
    },
    {
      "inputs": [],
      "name": "renounceOwnership",
      "outputs": [],
      "stateMutability": "nonpayable",
      "type": "function"
    },
    {
      "inputs": [
        {
          "internalType": "address",
          "name": "newOwner",
          "type": "address"
        }
      ],
      "name": "transferOwnership",
      "outputs": [],
      "stateMutability": "nonpayable",
      "type": "function"
    }
  ],
  "bytecode": "0x6080604052603c6001556040518060800160405280600367ffffffffffffffff168152602001600a67ffffffffffffffff168152602001600a67ffffffffffffffff168152602001600f63ffffffff16815250600560008201518160000160006101000a81548167ffffffffffffffff021916908367ffffffffffffffff16021790555060208201518160000160086101000a81548167ffffffffffffffff021916908367ffffffffffffffff16021790555060408201518160000160106101000a81548167ffffffffffffffff021916908367ffffffffffffffff16021790555060608201518160000160186101000a81548163ffffffff021916908363ffffffff16021790555050506040518060800160405280600567ffffffffffffffff168152602001600567ffffffffffffffff168152602001600567ffffffffffffffff168152602001601463ffffffff16815250600660008201518160000160006101000a81548167ffffffffffffffff021916908367ffffffffffffffff16021790555060208201518160000160086101000a81548167ffffffffffffffff021916908367ffffffffffffffff16021790555060408201518160000160106101000a81548167ffffffffffffffff021916908367ffffffffffffffff16021790555060608201518160000160186101000a81548163ffffffff021916908363ffffffff16021790555050506040518060800160405280600a67ffffffffffffffff168152602001600767ffffffffffffffff168152602001600567ffffffffffffffff168152602001600a63ffffffff16815250600760008201518160000160006101000a81548167ffffffffffffffff021916908367ffffffffffffffff16021790555060208201518160000160086101000a81548167ffffffffffffffff021916908367ffffffffffffffff16021790555060408201518160000160106101000a81548167ffffffffffffffff021916908367ffffffffffffffff16021790555060608201518160000160186101000a81548163ffffffff021916908363ffffffff16021790555050506040518060800160405280600567ffffffffffffffff168152602001600767ffffffffffffffff168152602001600767ffffffffffffffff168152602001600f63ffffffff16815250600860008201518160000160006101000a81548167ffffffffffffffff021916908367ffffffffffffffff16021790555060208201518160000160086101000a81548167ffffffffffffffff021916908367ffffffffffffffff16021790555060408201518160000160106101000a81548167ffffffffffffffff021916908367ffffffffffffffff16021790555060608201518160000160186101000a81548163ffffffff021916908363ffffffff160217905550505034801561041957600080fd5b5061043661042b61043b60201b60201c565b61044360201b60201c565b610507565b600033905090565b60008060009054906101000a900473ffffffffffffffffffffffffffffffffffffffff169050816000806101000a81548173ffffffffffffffffffffffffffffffffffffffff021916908373ffffffffffffffffffffffffffffffffffffffff1602179055508173ffffffffffffffffffffffffffffffffffffffff168173ffffffffffffffffffffffffffffffffffffffff167f8be0079c531659141344cd1fd0a4f28419497f9722a3daafe3b4186f6b6457e060405160405180910390a35050565b6121e480620005176000396000f3fe608060405234801561001057600080fd5b506004361061009e5760003560e01c8063715018a611610066578063715018a61461016f5780637670bf86146101795780638da5cb5b14610195578063d2c412ee146101b3578063f2fde38b146101ee5761009e565b8063014fed0c146100a35780632a6225e4146100c157806341074699146100f157806367c341bf146101215780636fc082cc14610151575b600080fd5b6100ab61020a565b6040516100b89190611c94565b60405180910390f35b6100db60048036038101906100d6919061161a565b61042f565b6040516100e89190611c79565b60405180910390f35b61010b6004803603810190610106919061161a565b610462565b6040516101189190611c94565b60405180910390f35b61013b6004803603810190610136919061161a565b6107ae565b6040516101489190611d18565b60405180910390f35b610159610a7d565b6040516101669190611cb6565b60405180910390f35b610177610d49565b005b610193600480360381019061018e9190611643565b610dd1565b005b61019d610fae565b6040516101aa9190611c79565b60405180910390f35b6101cd60048036038101906101c8919061161a565b610fd7565b6040516101e59c9b9a99989796959493929190611d3a565b60405180910390f35b610208600480360381019061020391906115f1565b6111df565b005b60606009805480602002602001604051908101604052809291908181526020016000905b8282101561042657838290600052602060002090600402016040518060e00160405290816000820160009054906101000a900463ffffffff1663ffffffff1663ffffffff1681526020016000820160049054906101000a900463ffffffff1663ffffffff1663ffffffff1681526020016000820160089054906101000a900463ffffffff1663ffffffff1663ffffffff16815260200160008201600c9054906101000a900463ffffffff1663ffffffff1663ffffffff1681526020016001820180546102f990611fa7565b80601f016020809104026020016040519081016040528092919081815260200182805461032590611fa7565b80156103725780601f1061034757610100808354040283529160200191610372565b820191906000526020600020905b81548152906001019060200180831161035557829003601f168201915b5050505050815260200160028201805461038b90611fa7565b80601f01602080910402602001604051908101604052809291908181526020018280546103b790611fa7565b80156104045780601f106103d957610100808354040283529160200191610404565b820191906000526020600020905b8154815290600101906020018083116103e757829003601f168201915b505050505081526020016003820154815250508152602001906001019061022e565b50505050905090565b60036020528060005260406000206000915054906101000a900473ffffffffffffffffffffffffffffffffffffffff1681565b60606000600b60008481526020019081526020016000205467ffffffffffffffff8111156104b9577f4e487b7100000000000000000000000000000000000000000000000000000000600052604160045260246000fd5b6040519080825280602002602001820160405280156104f257816020015b6104df6113a3565b8152602001906001900390816104d75790505b5090506000805b600a805490508110156107a35784600c600083815260200190815260200160002054141561079057600a818154811061055b577f4e487b7100000000000000000000000000000000000000000000000000000000600052603260045260246000fd5b90600052602060002090600602016002016040518060e00160405290816000820160009054906101000a900463ffffffff1663ffffffff1663ffffffff1681526020016000820160049054906101000a900463ffffffff1663ffffffff1663ffffffff1681526020016000820160089054906101000a900463ffffffff1663ffffffff1663ffffffff16815260200160008201600c9054906101000a900463ffffffff1663ffffffff1663ffffffff16815260200160018201805461061f90611fa7565b80601f016020809104026020016040519081016040528092919081815260200182805461064b90611fa7565b80156106985780601f1061066d57610100808354040283529160200191610698565b820191906000526020600020905b81548152906001019060200180831161067b57829003601f168201915b505050505081526020016002820180546106b190611fa7565b80601f01602080910402602001604051908101604052809291908181526020018280546106dd90611fa7565b801561072a5780601f106106ff5761010080835404028352916020019161072a565b820191906000526020600020905b81548152906001019060200180831161070d57829003601f168201915b50505050508152602001600382015481525050838381518110610776577f4e487b7100000000000000000000000000000000000000000000000000000000600052603260045260246000fd5b6020026020010181905250818061078c9061200a565b9250505b808061079b9061200a565b9150506104f9565b508192505050919050565b6107b66113f8565b600282815481106107f0577f4e487b7100000000000000000000000000000000000000000000000000000000600052603260045260246000fd5b9060005260206000209060090201604051806101800160405290816000820154815260200160018201548152602001600282015481526020016003820160009054906101000a900467ffffffffffffffff1667ffffffffffffffff1667ffffffffffffffff1681526020016003820160089054906101000a900467ffffffffffffffff1667ffffffffffffffff1667ffffffffffffffff1681526020016003820160109054906101000a900467ffffffffffffffff1667ffffffffffffffff1667ffffffffffffffff1681526020016003820160189054906101000a900463ffffffff1663ffffffff1663ffffffff16815260200160038201601c9054906101000a900463ffffffff1663ffffffff1663ffffffff168152602001600482016040518060400160405290816000820154815260200160018201548152505081526020016006820160009054906101000a900461ffff1661ffff1661ffff16815260200160078201805461096290611fa7565b80601f016020809104026020016040519081016040528092919081815260200182805461098e90611fa7565b80156109db5780601f106109b0576101008083540402835291602001916109db565b820191906000526020600020905b8154815290600101906020018083116109be57829003601f168201915b505050505081526020016008820180546109f490611fa7565b80601f0160208091040260200160405190810160405280929190818152602001828054610a2090611fa7565b8015610a6d5780601f10610a4257610100808354040283529160200191610a6d565b820191906000526020600020905b815481529060010190602001808311610a5057829003601f168201915b5050505050815250509050919050565b60606002805480602002602001604051908101604052809291908181526020016000905b82821015610d405783829060005260206000209060090201604051806101800160405290816000820154815260200160018201548152602001600282015481526020016003820160009054906101000a900467ffffffffffffffff1667ffffffffffffffff1667ffffffffffffffff1681526020016003820160089054906101000a900467ffffffffffffffff1667ffffffffffffffff1667ffffffffffffffff1681526020016003820160109054906101000a900467ffffffffffffffff1667ffffffffffffffff1667ffffffffffffffff1681526020016003820160189054906101000a900463ffffffff1663ffffffff1663ffffffff16815260200160038201601c9054906101000a900463ffffffff1663ffffffff1663ffffffff168152602001600482016040518060400160405290816000820154815260200160018201548152505081526020016006820160009054906101000a900461ffff1661ffff1661ffff168152602001600782018054610c1d90611fa7565b80601f0160208091040260200160405190810160405280929190818152602001828054610c4990611fa7565b8015610c965780601f10610c6b57610100808354040283529160200191610c96565b820191906000526020600020905b815481529060010190602001808311610c7957829003601f168201915b50505050508152602001600882018054610caf90611fa7565b80601f0160208091040260200160405190810160405280929190818152602001828054610cdb90611fa7565b8015610d285780601f10610cfd57610100808354040283529160200191610d28565b820191906000526020600020905b815481529060010190602001808311610d0b57829003601f168201915b50505050508152505081526020019060010190610aa1565b50505050905090565b610d516112d7565b73ffffffffffffffffffffffffffffffffffffffff16610d6f610fae565b73ffffffffffffffffffffffffffffffffffffffff1614610dc5576040517f08c379a0000000000000000000000000000000000000000000000000000000008152600401610dbc90611cf8565b60405180910390fd5b610dcf60006112df565b565b610dd96112d7565b73ffffffffffffffffffffffffffffffffffffffff16610df7610fae565b73ffffffffffffffffffffffffffffffffffffffff1614610e4d576040517f08c379a0000000000000000000000000000000000000000000000000000000008152600401610e4490611cf8565b60405180910390fd5b60096040518060e001604052808963ffffffff1681526020018863ffffffff1681526020018763ffffffff1681526020018663ffffffff16815260200185815260200184815260200183815250908060018154018082558091505060019003906000526020600020906004020160009091909190915060008201518160000160006101000a81548163ffffffff021916908363ffffffff16021790555060208201518160000160046101000a81548163ffffffff021916908363ffffffff16021790555060408201518160000160086101000a81548163ffffffff021916908363ffffffff160217905550606082015181600001600c6101000a81548163ffffffff021916908363ffffffff1602179055506080820151816001019080519060200190610f7b92919061148d565b5060a0820151816002019080519060200190610f9892919061148d565b5060c08201518160030155505050505050505050565b60008060009054906101000a900473ffffffffffffffffffffffffffffffffffffffff16905090565b60028181548110610fe757600080fd5b90600052602060002090600902016000915090508060000154908060010154908060020154908060030160009054906101000a900467ffffffffffffffff16908060030160089054906101000a900467ffffffffffffffff16908060030160109054906101000a900467ffffffffffffffff16908060030160189054906101000a900463ffffffff169080600301601c9054906101000a900463ffffffff16908060040160405180604001604052908160008201548152602001600182015481525050908060060160009054906101000a900461ffff16908060070180546110ce90611fa7565b80601f01602080910402602001604051908101604052809291908181526020018280546110fa90611fa7565b80156111475780601f1061111c57610100808354040283529160200191611147565b820191906000526020600020905b81548152906001019060200180831161112a57829003601f168201915b50505050509080600801805461115c90611fa7565b80601f016020809104026020016040519081016040528092919081815260200182805461118890611fa7565b80156111d55780601f106111aa576101008083540402835291602001916111d5565b820191906000526020600020905b8154815290600101906020018083116111b857829003601f168201915b505050505090508c565b6111e76112d7565b73ffffffffffffffffffffffffffffffffffffffff16611205610fae565b73ffffffffffffffffffffffffffffffffffffffff161461125b576040517f08c379a000000000000000000000000000000000000000000000000000000000815260040161125290611cf8565b60405180910390fd5b600073ffffffffffffffffffffffffffffffffffffffff168173ffffffffffffffffffffffffffffffffffffffff1614156112cb576040517f08c379a00000000000000000000000000000000000000000000000000000000081526004016112c290611cd8565b60405180910390fd5b6112d4816112df565b50565b600033905090565b60008060009054906101000a900473ffffffffffffffffffffffffffffffffffffffff169050816000806101000a81548173ffffffffffffffffffffffffffffffffffffffff021916908373ffffffffffffffffffffffffffffffffffffffff1602179055508173ffffffffffffffffffffffffffffffffffffffff168173ffffffffffffffffffffffffffffffffffffffff167f8be0079c531659141344cd1fd0a4f28419497f9722a3daafe3b4186f6b6457e060405160405180910390a35050565b6040518060e00160405280600063ffffffff168152602001600063ffffffff168152602001600063ffffffff168152602001600063ffffffff1681526020016060815260200160608152602001600081525090565b604051806101800160405280600081526020016000815260200160008152602001600067ffffffffffffffff168152602001600067ffffffffffffffff168152602001600067ffffffffffffffff168152602001600063ffffffff168152602001600063ffffffff16815260200161146e611513565b8152602001600061ffff16815260200160608152602001606081525090565b82805461149990611fa7565b90600052602060002090601f0160209004810192826114bb5760008555611502565b82601f106114d457805160ff1916838001178555611502565b82800160010185558215611502579182015b828111156115015782518255916020019190600101906114e6565b5b50905061150f919061152d565b5090565b604051806040016040528060008152602001600081525090565b5b8082111561154657600081600090555060010161152e565b5090565b600061155d61155884611e27565b611e02565b90508281526020810184848401111561157557600080fd5b611580848285611f65565b509392505050565b60008135905061159781612169565b92915050565b600082601f8301126115ae57600080fd5b81356115be84826020860161154a565b91505092915050565b6000813590506115d681612180565b92915050565b6000813590506115eb81612197565b92915050565b60006020828403121561160357600080fd5b600061161184828501611588565b91505092915050565b60006020828403121561162c57600080fd5b600061163a848285016115c7565b91505092915050565b600080600080600080600060e0888a03121561165e57600080fd5b600061166c8a828b016115dc565b975050602061167d8a828b016115dc565b965050604061168e8a828b016115dc565b955050606061169f8a828b016115dc565b945050608088013567ffffffffffffffff8111156116bc57600080fd5b6116c88a828b0161159d565b93505060a088013567ffffffffffffffff8111156116e557600080fd5b6116f18a828b0161159d565b92505060c06117028a828b016115c7565b91505092959891949750929550565b600061171d83836118ea565b905092915050565b6000611731838361198d565b905092915050565b61174281611ef7565b82525050565b600061175382611e78565b61175d8185611eb3565b93508360208202850161176f85611e58565b8060005b858110156117ab578484038952815161178c8582611711565b945061179783611e99565b925060208a01995050600181019050611773565b50829750879550505050505092915050565b60006117c882611e83565b6117d28185611ec4565b9350836020820285016117e485611e68565b8060005b8581101561182057848403895281516118018582611725565b945061180c83611ea6565b925060208a019950506001810190506117e8565b50829750879550505050505092915050565b600061183d82611e8e565b6118478185611ed5565b9350611857818560208601611f74565b611860816120e0565b840191505092915050565b600061187682611e8e565b6118808185611ee6565b9350611890818560208601611f74565b611899816120e0565b840191505092915050565b60006118b1602683611ee6565b91506118bc826120f1565b604082019050919050565b60006118d4602083611ee6565b91506118df82612140565b602082019050919050565b600060e0830160008301516119026000860182611c3d565b5060208301516119156020860182611c3d565b5060408301516119286040860182611c3d565b50606083015161193b6060860182611c3d565b50608083015184820360808601526119538282611832565b91505060a083015184820360a086015261196d8282611832565b91505060c083015161198260c0860182611c1f565b508091505092915050565b60006101a0830160008301516119a66000860182611c1f565b5060208301516119b96020860182611c1f565b5060408301516119cc6040860182611c1f565b5060608301516119df6060860182611c5b565b5060808301516119f26080860182611c5b565b5060a0830151611a0560a0860182611c5b565b5060c0830151611a1860c0860182611c3d565b5060e0830151611a2b60e0860182611c3d565b50610100830151611a40610100860182611ba3565b50610120830151611a55610140860182611c01565b50610140830151848203610160860152611a6f8282611832565b915050610160830151848203610180860152611a8b8282611832565b9150508091505092915050565b60006101a083016000830151611ab16000860182611c1f565b506020830151611ac46020860182611c1f565b506040830151611ad76040860182611c1f565b506060830151611aea6060860182611c5b565b506080830151611afd6080860182611c5b565b5060a0830151611b1060a0860182611c5b565b5060c0830151611b2360c0860182611c3d565b5060e0830151611b3660e0860182611c3d565b50610100830151611b4b610100860182611ba3565b50610120830151611b60610140860182611c01565b50610140830151848203610160860152611b7a8282611832565b915050610160830151848203610180860152611b968282611832565b9150508091505092915050565b604082016000820151611bb96000850182611c1f565b506020820151611bcc6020850182611c1f565b50505050565b604082016000820151611be86000850182611c1f565b506020820151611bfb6020850182611c1f565b50505050565b611c0a81611f09565b82525050565b611c1981611f09565b82525050565b611c2881611f37565b82525050565b611c3781611f37565b82525050565b611c4681611f41565b82525050565b611c5581611f41565b82525050565b611c6481611f51565b82525050565b611c7381611f51565b82525050565b6000602082019050611c8e6000830184611739565b92915050565b60006020820190508181036000830152611cae8184611748565b905092915050565b60006020820190508181036000830152611cd081846117bd565b905092915050565b60006020820190508181036000830152611cf1816118a4565b9050919050565b60006020820190508181036000830152611d11816118c7565b9050919050565b60006020820190508181036000830152611d328184611a98565b905092915050565b60006101a082019050611d50600083018f611c2e565b611d5d602083018e611c2e565b611d6a604083018d611c2e565b611d77606083018c611c6a565b611d84608083018b611c6a565b611d9160a083018a611c6a565b611d9e60c0830189611c4c565b611dab60e0830188611c4c565b611db9610100830187611bd2565b611dc7610140830186611c10565b818103610160830152611dda818561186b565b9050818103610180830152611def818461186b565b90509d9c50505050505050505050505050565b6000611e0c611e1d565b9050611e188282611fd9565b919050565b6000604051905090565b600067ffffffffffffffff821115611e4257611e416120b1565b5b611e4b826120e0565b9050602081019050919050565b6000819050602082019050919050565b6000819050602082019050919050565b600081519050919050565b600081519050919050565b600081519050919050565b6000602082019050919050565b6000602082019050919050565b600082825260208201905092915050565b600082825260208201905092915050565b600082825260208201905092915050565b600082825260208201905092915050565b6000611f0282611f17565b9050919050565b600061ffff82169050919050565b600073ffffffffffffffffffffffffffffffffffffffff82169050919050565b6000819050919050565b600063ffffffff82169050919050565b600067ffffffffffffffff82169050919050565b82818337600083830152505050565b60005b83811015611f92578082015181840152602081019050611f77565b83811115611fa1576000848401525b50505050565b60006002820490506001821680611fbf57607f821691505b60208210811415611fd357611fd2612082565b5b50919050565b611fe2826120e0565b810181811067ffffffffffffffff82111715612001576120006120b1565b5b80604052505050565b600061201582611f37565b91507fffffffffffffffffffffffffffffffffffffffffffffffffffffffffffffffff82141561204857612047612053565b5b600182019050919050565b7f4e487b7100000000000000000000000000000000000000000000000000000000600052601160045260246000fd5b7f4e487b7100000000000000000000000000000000000000000000000000000000600052602260045260246000fd5b7f4e487b7100000000000000000000000000000000000000000000000000000000600052604160045260246000fd5b6000601f19601f8301169050919050565b7f4f776e61626c653a206e6577206f776e657220697320746865207a65726f206160008201527f6464726573730000000000000000000000000000000000000000000000000000602082015250565b7f4f776e61626c653a2063616c6c6572206973206e6f7420746865206f776e6572600082015250565b61217281611ef7565b811461217d57600080fd5b50565b61218981611f37565b811461219457600080fd5b50565b6121a081611f41565b81146121ab57600080fd5b5056fea2646970667358221220859be88b9a4d9d404bb1294fe36a427870f6883df78601fcf31e86030bf3e98564736f6c63430008040033",
  "linkReferences": {},
  "deployedLinkReferences": {}
}